{
  "_format": "hh-sol-artifact-1",
  "contractName": "DynamicSvgNft",
  "sourceName": "contracts/DynamicSvgNft.sol",
  "abi": [
    {
      "inputs": [
        {
          "internalType": "address",
          "name": "priceFeedAddress",
          "type": "address"
        },
        {
          "internalType": "string",
          "name": "lowSvg",
          "type": "string"
        },
        {
          "internalType": "string",
          "name": "highSvg",
          "type": "string"
        }
      ],
      "stateMutability": "nonpayable",
      "type": "constructor"
    },
    {
      "inputs": [],
      "name": "ERC721Metadata__URI_QueryFor_NonExistentToken",
      "type": "error"
    },
    {
      "anonymous": false,
      "inputs": [
        {
          "indexed": true,
          "internalType": "address",
          "name": "owner",
          "type": "address"
        },
        {
          "indexed": true,
          "internalType": "address",
          "name": "approved",
          "type": "address"
        },
        {
          "indexed": true,
          "internalType": "uint256",
          "name": "tokenId",
          "type": "uint256"
        }
      ],
      "name": "Approval",
      "type": "event"
    },
    {
      "anonymous": false,
      "inputs": [
        {
          "indexed": true,
          "internalType": "address",
          "name": "owner",
          "type": "address"
        },
        {
          "indexed": true,
          "internalType": "address",
          "name": "operator",
          "type": "address"
        },
        {
          "indexed": false,
          "internalType": "bool",
          "name": "approved",
          "type": "bool"
        }
      ],
      "name": "ApprovalForAll",
      "type": "event"
    },
    {
      "anonymous": false,
      "inputs": [
        {
          "indexed": true,
          "internalType": "uint256",
          "name": "tokenId",
          "type": "uint256"
        },
        {
          "indexed": false,
          "internalType": "int256",
          "name": "highValue",
          "type": "int256"
        }
      ],
      "name": "CreatedNFT",
      "type": "event"
    },
    {
      "anonymous": false,
      "inputs": [
        {
          "indexed": true,
          "internalType": "address",
          "name": "previousOwner",
          "type": "address"
        },
        {
          "indexed": true,
          "internalType": "address",
          "name": "newOwner",
          "type": "address"
        }
      ],
      "name": "OwnershipTransferred",
      "type": "event"
    },
    {
      "anonymous": false,
      "inputs": [
        {
          "indexed": true,
          "internalType": "address",
          "name": "from",
          "type": "address"
        },
        {
          "indexed": true,
          "internalType": "address",
          "name": "to",
          "type": "address"
        },
        {
          "indexed": true,
          "internalType": "uint256",
          "name": "tokenId",
          "type": "uint256"
        }
      ],
      "name": "Transfer",
      "type": "event"
    },
    {
      "inputs": [
        {
          "internalType": "address",
          "name": "to",
          "type": "address"
        },
        {
          "internalType": "uint256",
          "name": "tokenId",
          "type": "uint256"
        }
      ],
      "name": "approve",
      "outputs": [],
      "stateMutability": "nonpayable",
      "type": "function"
    },
    {
      "inputs": [
        {
          "internalType": "address",
          "name": "owner",
          "type": "address"
        }
      ],
      "name": "balanceOf",
      "outputs": [
        {
          "internalType": "uint256",
          "name": "",
          "type": "uint256"
        }
      ],
      "stateMutability": "view",
      "type": "function"
    },
    {
      "inputs": [
        {
          "internalType": "uint256",
          "name": "tokenId",
          "type": "uint256"
        }
      ],
      "name": "getApproved",
      "outputs": [
        {
          "internalType": "address",
          "name": "",
          "type": "address"
        }
      ],
      "stateMutability": "view",
      "type": "function"
    },
    {
      "inputs": [],
      "name": "getHighSVG",
      "outputs": [
        {
          "internalType": "string",
          "name": "",
          "type": "string"
        }
      ],
      "stateMutability": "view",
      "type": "function"
    },
    {
      "inputs": [],
      "name": "getLowSVG",
      "outputs": [
        {
          "internalType": "string",
          "name": "",
          "type": "string"
        }
      ],
      "stateMutability": "view",
      "type": "function"
    },
    {
      "inputs": [],
      "name": "getPriceFeed",
      "outputs": [
        {
          "internalType": "contract AggregatorV3Interface",
          "name": "",
          "type": "address"
        }
      ],
      "stateMutability": "view",
      "type": "function"
    },
    {
      "inputs": [],
      "name": "getTokenCounter",
      "outputs": [
        {
          "internalType": "uint256",
          "name": "",
          "type": "uint256"
        }
      ],
      "stateMutability": "view",
      "type": "function"
    },
    {
      "inputs": [
        {
          "internalType": "address",
          "name": "owner",
          "type": "address"
        },
        {
          "internalType": "address",
          "name": "operator",
          "type": "address"
        }
      ],
      "name": "isApprovedForAll",
      "outputs": [
        {
          "internalType": "bool",
          "name": "",
          "type": "bool"
        }
      ],
      "stateMutability": "view",
      "type": "function"
    },
    {
      "inputs": [
        {
          "internalType": "int256",
          "name": "highValue",
          "type": "int256"
        }
      ],
      "name": "mintNft",
      "outputs": [],
      "stateMutability": "nonpayable",
      "type": "function"
    },
    {
      "inputs": [],
      "name": "name",
      "outputs": [
        {
          "internalType": "string",
          "name": "",
          "type": "string"
        }
      ],
      "stateMutability": "view",
      "type": "function"
    },
    {
      "inputs": [],
      "name": "owner",
      "outputs": [
        {
          "internalType": "address",
          "name": "",
          "type": "address"
        }
      ],
      "stateMutability": "view",
      "type": "function"
    },
    {
      "inputs": [
        {
          "internalType": "uint256",
          "name": "tokenId",
          "type": "uint256"
        }
      ],
      "name": "ownerOf",
      "outputs": [
        {
          "internalType": "address",
          "name": "",
          "type": "address"
        }
      ],
      "stateMutability": "view",
      "type": "function"
    },
    {
      "inputs": [],
      "name": "renounceOwnership",
      "outputs": [],
      "stateMutability": "nonpayable",
      "type": "function"
    },
    {
      "inputs": [
        {
          "internalType": "address",
          "name": "from",
          "type": "address"
        },
        {
          "internalType": "address",
          "name": "to",
          "type": "address"
        },
        {
          "internalType": "uint256",
          "name": "tokenId",
          "type": "uint256"
        }
      ],
      "name": "safeTransferFrom",
      "outputs": [],
      "stateMutability": "nonpayable",
      "type": "function"
    },
    {
      "inputs": [
        {
          "internalType": "address",
          "name": "from",
          "type": "address"
        },
        {
          "internalType": "address",
          "name": "to",
          "type": "address"
        },
        {
          "internalType": "uint256",
          "name": "tokenId",
          "type": "uint256"
        },
        {
          "internalType": "bytes",
          "name": "data",
          "type": "bytes"
        }
      ],
      "name": "safeTransferFrom",
      "outputs": [],
      "stateMutability": "nonpayable",
      "type": "function"
    },
    {
      "inputs": [
        {
          "internalType": "address",
          "name": "operator",
          "type": "address"
        },
        {
          "internalType": "bool",
          "name": "approved",
          "type": "bool"
        }
      ],
      "name": "setApprovalForAll",
      "outputs": [],
      "stateMutability": "nonpayable",
      "type": "function"
    },
    {
      "inputs": [
        {
          "internalType": "bytes4",
          "name": "interfaceId",
          "type": "bytes4"
        }
      ],
      "name": "supportsInterface",
      "outputs": [
        {
          "internalType": "bool",
          "name": "",
          "type": "bool"
        }
      ],
      "stateMutability": "view",
      "type": "function"
    },
    {
      "inputs": [
        {
          "internalType": "string",
          "name": "svg",
          "type": "string"
        }
      ],
      "name": "svgToImageURI",
      "outputs": [
        {
          "internalType": "string",
          "name": "",
          "type": "string"
        }
      ],
      "stateMutability": "pure",
      "type": "function"
    },
    {
      "inputs": [],
      "name": "symbol",
      "outputs": [
        {
          "internalType": "string",
          "name": "",
          "type": "string"
        }
      ],
      "stateMutability": "view",
      "type": "function"
    },
    {
      "inputs": [
        {
          "internalType": "uint256",
          "name": "tokenId",
          "type": "uint256"
        }
      ],
      "name": "tokenURI",
      "outputs": [
        {
          "internalType": "string",
          "name": "",
          "type": "string"
        }
      ],
      "stateMutability": "view",
      "type": "function"
    },
    {
      "inputs": [
        {
          "internalType": "address",
          "name": "from",
          "type": "address"
        },
        {
          "internalType": "address",
          "name": "to",
          "type": "address"
        },
        {
          "internalType": "uint256",
          "name": "tokenId",
          "type": "uint256"
        }
      ],
      "name": "transferFrom",
      "outputs": [],
      "stateMutability": "nonpayable",
      "type": "function"
    },
    {
      "inputs": [
        {
          "internalType": "address",
          "name": "newOwner",
          "type": "address"
        }
      ],
      "name": "transferOwnership",
      "outputs": [],
      "stateMutability": "nonpayable",
      "type": "function"
    }
  ],
  "bytecode": "0x60a06040523480156200001157600080fd5b5060405162003d6938038062003d698339818101604052810190620000379190620005d6565b6040518060400160405280600f81526020017f44796e616d696320535647204e465400000000000000000000000000000000008152506040518060400160405280600381526020017f44534e00000000000000000000000000000000000000000000000000000000008152508160009080519060200190620000bb92919062000491565b508060019080519060200190620000d492919062000491565b505050620000f7620000eb6200019160201b60201c565b6200019960201b60201c565b60006007819055508273ffffffffffffffffffffffffffffffffffffffff1660808173ffffffffffffffffffffffffffffffffffffffff1660601b8152505062000147826200025f60201b60201c565b600890805190602001906200015e92919062000491565b5062000170816200025f60201b60201c565b600990805190602001906200018792919062000491565b5050505062000a2e565b600033905090565b6000600660009054906101000a900473ffffffffffffffffffffffffffffffffffffffff16905081600660006101000a81548173ffffffffffffffffffffffffffffffffffffffff021916908373ffffffffffffffffffffffffffffffffffffffff1602179055508173ffffffffffffffffffffffffffffffffffffffff168173ffffffffffffffffffffffffffffffffffffffff167f8be0079c531659141344cd1fd0a4f28419497f9722a3daafe3b4186f6b6457e060405160405180910390a35050565b606060006040518060400160405280601a81526020017f646174613a696d6167652f7376672b786d6c3b6261736536342c00000000000081525090506000620002d484604051602001620002b49190620006a7565b6040516020818303038152906040526200030360201b620010341760201c565b90508181604051602001620002eb929190620006c0565b60405160208183030381529060405292505050919050565b606060008251141562000328576040518060200160405280600081525090506200048c565b600060405180606001604052806040815260200162003d2960409139905060006003600285516200035a91906200075d565b620003669190620007ba565b6004620003749190620007f2565b905060006020826200038791906200075d565b67ffffffffffffffff811115620003a357620003a2620009c0565b5b6040519080825280601f01601f191660200182016040528015620003d65781602001600182028036833780820191505090505b509050818152600183018586518101602084015b8183101562000447576003830192508251603f8160121c168501518253600182019150603f81600c1c168501518253600182019150603f8160061c168501518253600182019150603f8116850151825360018201915050620003ea565b600389510660018114620004645760028114620004755762000480565b613d3d60f01b600283035262000480565b603d60f81b60018303525b50505050508093505050505b919050565b8280546200049f90620008c7565b90600052602060002090601f016020900481019282620004c357600085556200050f565b82601f10620004de57805160ff19168380011785556200050f565b828001600101855582156200050f579182015b828111156200050e578251825591602001919060010190620004f1565b5b5090506200051e919062000522565b5090565b5b808211156200053d57600081600090555060010162000523565b5090565b600062000558620005528462000711565b620006e8565b905082815260208101848484011115620005775762000576620009f4565b5b6200058484828562000891565b509392505050565b6000815190506200059d8162000a14565b92915050565b600082601f830112620005bb57620005ba620009ef565b5b8151620005cd84826020860162000541565b91505092915050565b600080600060608486031215620005f257620005f1620009fe565b5b600062000602868287016200058c565b935050602084015167ffffffffffffffff811115620006265762000625620009f9565b5b6200063486828701620005a3565b925050604084015167ffffffffffffffff811115620006585762000657620009f9565b5b6200066686828701620005a3565b9150509250925092565b60006200067d8262000747565b62000689818562000752565b93506200069b81856020860162000891565b80840191505092915050565b6000620006b5828462000670565b915081905092915050565b6000620006ce828562000670565b9150620006dc828462000670565b91508190509392505050565b6000620006f462000707565b9050620007028282620008fd565b919050565b6000604051905090565b600067ffffffffffffffff8211156200072f576200072e620009c0565b5b6200073a8262000a03565b9050602081019050919050565b600081519050919050565b600081905092915050565b60006200076a8262000887565b9150620007778362000887565b9250827fffffffffffffffffffffffffffffffffffffffffffffffffffffffffffffffff03821115620007af57620007ae62000933565b5b828201905092915050565b6000620007c78262000887565b9150620007d48362000887565b925082620007e757620007e662000962565b5b828204905092915050565b6000620007ff8262000887565b91506200080c8362000887565b9250817fffffffffffffffffffffffffffffffffffffffffffffffffffffffffffffffff048311821515161562000848576200084762000933565b5b828202905092915050565b6000620008608262000867565b9050919050565b600073ffffffffffffffffffffffffffffffffffffffff82169050919050565b6000819050919050565b60005b83811015620008b157808201518184015260208101905062000894565b83811115620008c1576000848401525b50505050565b60006002820490506001821680620008e057607f821691505b60208210811415620008f757620008f662000991565b5b50919050565b620009088262000a03565b810181811067ffffffffffffffff821117156200092a5762000929620009c0565b5b80604052505050565b7f4e487b7100000000000000000000000000000000000000000000000000000000600052601160045260246000fd5b7f4e487b7100000000000000000000000000000000000000000000000000000000600052601260045260246000fd5b7f4e487b7100000000000000000000000000000000000000000000000000000000600052602260045260246000fd5b7f4e487b7100000000000000000000000000000000000000000000000000000000600052604160045260246000fd5b600080fd5b600080fd5b600080fd5b600080fd5b6000601f19601f8301169050919050565b62000a1f8162000853565b811462000a2b57600080fd5b50565b60805160601c6132d562000a5460003960008181610b6e0152610c4f01526132d56000f3fe608060405234801561001057600080fd5b50600436106101425760003560e01c8063715018a6116100b8578063a22cb4651161007c578063a22cb46514610365578063b88d4fde14610381578063c87b56dd1461039d578063e985e9c5146103cd578063ed28a122146103fd578063f2fde38b1461041b57610142565b8063715018a6146102e357806376f6056b146102ed5780638da5cb5b1461030b57806395d89b41146103295780639e87a5cd1461034757610142565b806323b872dd1161010a57806323b872dd146101fd57806330d871c61461021957806342842e0e146102495780636352211e146102655780636e02007d1461029557806370a08231146102b357610142565b806301ffc9a71461014757806306fdde0314610177578063081812fc14610195578063095ea7b3146101c55780631e930812146101e1575b600080fd5b610161600480360381019061015c919061214c565b610437565b60405161016e91906126f7565b60405180910390f35b61017f610519565b60405161018c9190612748565b60405180910390f35b6101af60048036038101906101aa919061221c565b6105ab565b6040516101bc9190612690565b60405180910390f35b6101df60048036038101906101da919061210c565b6105f1565b005b6101fb60048036038101906101f691906121a6565b610709565b005b61021760048036038101906102129190611ff6565b610781565b005b610233600480360381019061022e91906121d3565b6107e1565b6040516102409190612748565b60405180910390f35b610263600480360381019061025e9190611ff6565b610874565b005b61027f600480360381019061027a919061221c565b610894565b60405161028c9190612690565b60405180910390f35b61029d610946565b6040516102aa919061290a565b60405180910390f35b6102cd60048036038101906102c89190611f89565b610950565b6040516102da919061290a565b60405180910390f35b6102eb610a08565b005b6102f5610a1c565b6040516103029190612748565b60405180910390f35b610313610aae565b6040516103209190612690565b60405180910390f35b610331610ad8565b60405161033e9190612748565b60405180910390f35b61034f610b6a565b60405161035c9190612712565b60405180910390f35b61037f600480360381019061037a91906120cc565b610b92565b005b61039b60048036038101906103969190612049565b610ba8565b005b6103b760048036038101906103b2919061221c565b610c0a565b6040516103c49190612748565b60405180910390f35b6103e760048036038101906103e29190611fb6565b610e8a565b6040516103f491906126f7565b60405180910390f35b610405610f1e565b6040516104129190612748565b60405180910390f35b61043560048036038101906104309190611f89565b610fb0565b005b60007f80ac58cd000000000000000000000000000000000000000000000000000000007bffffffffffffffffffffffffffffffffffffffffffffffffffffffff1916827bffffffffffffffffffffffffffffffffffffffffffffffffffffffff1916148061050257507f5b5e139f000000000000000000000000000000000000000000000000000000007bffffffffffffffffffffffffffffffffffffffffffffffffffffffff1916827bffffffffffffffffffffffffffffffffffffffffffffffffffffffff1916145b806105125750610511826111ad565b5b9050919050565b60606000805461052890612c10565b80601f016020809104026020016040519081016040528092919081815260200182805461055490612c10565b80156105a15780601f10610576576101008083540402835291602001916105a1565b820191906000526020600020905b81548152906001019060200180831161058457829003601f168201915b5050505050905090565b60006105b682611217565b6004600083815260200190815260200160002060009054906101000a900473ffffffffffffffffffffffffffffffffffffffff169050919050565b60006105fc82610894565b90508073ffffffffffffffffffffffffffffffffffffffff168373ffffffffffffffffffffffffffffffffffffffff16141561066d576040517f08c379a0000000000000000000000000000000000000000000000000000000008152600401610664906128ca565b60405180910390fd5b8073ffffffffffffffffffffffffffffffffffffffff1661068c611262565b73ffffffffffffffffffffffffffffffffffffffff1614806106bb57506106ba816106b5611262565b610e8a565b5b6106fa576040517f08c379a00000000000000000000000000000000000000000000000000000000081526004016106f19061284a565b60405180910390fd5b610704838361126a565b505050565b80600a600060075481526020019081526020016000208190555061072f33600754611323565b600160075461073e91906129ef565b6007819055506007547f882d3b5a729a8bb95cf6c0083c99b42ecd9637123d4425bd7b768877fd8af8b082604051610776919061272d565b60405180910390a250565b61079261078c611262565b82611341565b6107d1576040517f08c379a00000000000000000000000000000000000000000000000000000000081526004016107c8906128ea565b60405180910390fd5b6107dc8383836113d6565b505050565b606060006040518060400160405280601a81526020017f646174613a696d6167652f7376672b786d6c3b6261736536342c00000000000081525090506000610847846040516020016108339190612605565b604051602081830303815290604052611034565b9050818160405160200161085c92919061261c565b60405160208183030381529060405292505050919050565b61088f83838360405180602001604052806000815250610ba8565b505050565b6000806002600084815260200190815260200160002060009054906101000a900473ffffffffffffffffffffffffffffffffffffffff169050600073ffffffffffffffffffffffffffffffffffffffff168173ffffffffffffffffffffffffffffffffffffffff16141561093d576040517f08c379a0000000000000000000000000000000000000000000000000000000008152600401610934906128aa565b60405180910390fd5b80915050919050565b6000600754905090565b60008073ffffffffffffffffffffffffffffffffffffffff168273ffffffffffffffffffffffffffffffffffffffff1614156109c1576040517f08c379a00000000000000000000000000000000000000000000000000000000081526004016109b89061282a565b60405180910390fd5b600360008373ffffffffffffffffffffffffffffffffffffffff1673ffffffffffffffffffffffffffffffffffffffff168152602001908152602001600020549050919050565b610a1061163d565b610a1a60006116bb565b565b606060098054610a2b90612c10565b80601f0160208091040260200160405190810160405280929190818152602001828054610a5790612c10565b8015610aa45780601f10610a7957610100808354040283529160200191610aa4565b820191906000526020600020905b815481529060010190602001808311610a8757829003601f168201915b5050505050905090565b6000600660009054906101000a900473ffffffffffffffffffffffffffffffffffffffff16905090565b606060018054610ae790612c10565b80601f0160208091040260200160405190810160405280929190818152602001828054610b1390612c10565b8015610b605780601f10610b3557610100808354040283529160200191610b60565b820191906000526020600020905b815481529060010190602001808311610b4357829003601f168201915b5050505050905090565b60007f0000000000000000000000000000000000000000000000000000000000000000905090565b610ba4610b9d611262565b8383611781565b5050565b610bb9610bb3611262565b83611341565b610bf8576040517f08c379a0000000000000000000000000000000000000000000000000000000008152600401610bef906128ea565b60405180910390fd5b610c04848484846118ee565b50505050565b6060610c158261194a565b610c4b576040517f6df5edae00000000000000000000000000000000000000000000000000000000815260040160405180910390fd5b60007f000000000000000000000000000000000000000000000000000000000000000073ffffffffffffffffffffffffffffffffffffffff1663feaf968c6040518163ffffffff1660e01b815260040160a06040518083038186803b158015610cb357600080fd5b505afa158015610cc7573d6000803e3d6000fd5b505050506040513d601f19601f82011682018060405250810190610ceb9190612249565b505050915050600060088054610d0090612c10565b80601f0160208091040260200160405190810160405280929190818152602001828054610d2c90612c10565b8015610d795780601f10610d4e57610100808354040283529160200191610d79565b820191906000526020600020905b815481529060010190602001808311610d5c57829003601f168201915b50505050509050600a6000858152602001908152602001600020548212610e285760098054610da790612c10565b80601f0160208091040260200160405190810160405280929190818152602001828054610dd390612c10565b8015610e205780601f10610df557610100808354040283529160200191610e20565b820191906000526020600020905b815481529060010190602001808311610e0357829003601f168201915b505050505090505b610e306119b6565b610e61610e3b610519565b83604051602001610e4d929190612640565b604051602081830303815290604052611034565b604051602001610e7292919061261c565b60405160208183030381529060405292505050919050565b6000600560008473ffffffffffffffffffffffffffffffffffffffff1673ffffffffffffffffffffffffffffffffffffffff16815260200190815260200160002060008373ffffffffffffffffffffffffffffffffffffffff1673ffffffffffffffffffffffffffffffffffffffff16815260200190815260200160002060009054906101000a900460ff16905092915050565b606060088054610f2d90612c10565b80601f0160208091040260200160405190810160405280929190818152602001828054610f5990612c10565b8015610fa65780601f10610f7b57610100808354040283529160200191610fa6565b820191906000526020600020905b815481529060010190602001808311610f8957829003601f168201915b5050505050905090565b610fb861163d565b600073ffffffffffffffffffffffffffffffffffffffff168173ffffffffffffffffffffffffffffffffffffffff161415611028576040517f08c379a000000000000000000000000000000000000000000000000000000000815260040161101f9061278a565b60405180910390fd5b611031816116bb565b50565b6060600082511415611057576040518060200160405280600081525090506111a8565b6000604051806060016040528060408152602001613260604091399050600060036002855161108691906129ef565b6110909190612a45565b600461109c9190612a76565b905060006020826110ad91906129ef565b67ffffffffffffffff8111156110c6576110c5612d00565b5b6040519080825280601f01601f1916602001820160405280156110f85781602001600182028036833780820191505090505b509050818152600183018586518101602084015b81831015611167576003830192508251603f8160121c168501518253600182019150603f81600c1c168501518253600182019150603f8160061c168501518253600182019150603f811685015182536001820191505061110c565b60038951066001811461118157600281146111915761119c565b613d3d60f01b600283035261119c565b603d60f81b60018303525b50505050508093505050505b919050565b60007f01ffc9a7000000000000000000000000000000000000000000000000000000007bffffffffffffffffffffffffffffffffffffffffffffffffffffffff1916827bffffffffffffffffffffffffffffffffffffffffffffffffffffffff1916149050919050565b6112208161194a565b61125f576040517f08c379a0000000000000000000000000000000000000000000000000000000008152600401611256906128aa565b60405180910390fd5b50565b600033905090565b816004600083815260200190815260200160002060006101000a81548173ffffffffffffffffffffffffffffffffffffffff021916908373ffffffffffffffffffffffffffffffffffffffff160217905550808273ffffffffffffffffffffffffffffffffffffffff166112dd83610894565b73ffffffffffffffffffffffffffffffffffffffff167f8c5be1e5ebec7d5bd14f71427d1e84f3dd0314c0f7b2291e5b200ac8c7c3b92560405160405180910390a45050565b61133d8282604051806020016040528060008152506119f3565b5050565b60008061134d83610894565b90508073ffffffffffffffffffffffffffffffffffffffff168473ffffffffffffffffffffffffffffffffffffffff16148061138f575061138e8185610e8a565b5b806113cd57508373ffffffffffffffffffffffffffffffffffffffff166113b5846105ab565b73ffffffffffffffffffffffffffffffffffffffff16145b91505092915050565b8273ffffffffffffffffffffffffffffffffffffffff166113f682610894565b73ffffffffffffffffffffffffffffffffffffffff161461144c576040517f08c379a0000000000000000000000000000000000000000000000000000000008152600401611443906127aa565b60405180910390fd5b600073ffffffffffffffffffffffffffffffffffffffff168273ffffffffffffffffffffffffffffffffffffffff1614156114bc576040517f08c379a00000000000000000000000000000000000000000000000000000000081526004016114b3906127ea565b60405180910390fd5b6114c7838383611a4e565b6114d260008261126a565b6001600360008573ffffffffffffffffffffffffffffffffffffffff1673ffffffffffffffffffffffffffffffffffffffff16815260200190815260200160002060008282546115229190612ad0565b925050819055506001600360008473ffffffffffffffffffffffffffffffffffffffff1673ffffffffffffffffffffffffffffffffffffffff168152602001908152602001600020600082825461157991906129ef565b92505081905550816002600083815260200190815260200160002060006101000a81548173ffffffffffffffffffffffffffffffffffffffff021916908373ffffffffffffffffffffffffffffffffffffffff160217905550808273ffffffffffffffffffffffffffffffffffffffff168473ffffffffffffffffffffffffffffffffffffffff167fddf252ad1be2c89b69c2b068fc378daa952ba7f163c4a11628f55a4df523b3ef60405160405180910390a4611638838383611a53565b505050565b611645611262565b73ffffffffffffffffffffffffffffffffffffffff16611663610aae565b73ffffffffffffffffffffffffffffffffffffffff16146116b9576040517f08c379a00000000000000000000000000000000000000000000000000000000081526004016116b09061288a565b60405180910390fd5b565b6000600660009054906101000a900473ffffffffffffffffffffffffffffffffffffffff16905081600660006101000a81548173ffffffffffffffffffffffffffffffffffffffff021916908373ffffffffffffffffffffffffffffffffffffffff1602179055508173ffffffffffffffffffffffffffffffffffffffff168173ffffffffffffffffffffffffffffffffffffffff167f8be0079c531659141344cd1fd0a4f28419497f9722a3daafe3b4186f6b6457e060405160405180910390a35050565b8173ffffffffffffffffffffffffffffffffffffffff168373ffffffffffffffffffffffffffffffffffffffff1614156117f0576040517f08c379a00000000000000000000000000000000000000000000000000000000081526004016117e79061280a565b60405180910390fd5b80600560008573ffffffffffffffffffffffffffffffffffffffff1673ffffffffffffffffffffffffffffffffffffffff16815260200190815260200160002060008473ffffffffffffffffffffffffffffffffffffffff1673ffffffffffffffffffffffffffffffffffffffff16815260200190815260200160002060006101000a81548160ff0219169083151502179055508173ffffffffffffffffffffffffffffffffffffffff168373ffffffffffffffffffffffffffffffffffffffff167f17307eab39ab6107e8899845ad3d59bd9653f200f220920489ca2b5937696c31836040516118e191906126f7565b60405180910390a3505050565b6118f98484846113d6565b61190584848484611a58565b611944576040517f08c379a000000000000000000000000000000000000000000000000000000000815260040161193b9061276a565b60405180910390fd5b50505050565b60008073ffffffffffffffffffffffffffffffffffffffff166002600084815260200190815260200160002060009054906101000a900473ffffffffffffffffffffffffffffffffffffffff1673ffffffffffffffffffffffffffffffffffffffff1614159050919050565b60606040518060400160405280601d81526020017f646174613a6170706c69636174696f6e2f6a736f6e3b6261736536342c000000815250905090565b6119fd8383611bef565b611a0a6000848484611a58565b611a49576040517f08c379a0000000000000000000000000000000000000000000000000000000008152600401611a409061276a565b60405180910390fd5b505050565b505050565b505050565b6000611a798473ffffffffffffffffffffffffffffffffffffffff16611dc9565b15611be2578373ffffffffffffffffffffffffffffffffffffffff1663150b7a02611aa2611262565b8786866040518563ffffffff1660e01b8152600401611ac494939291906126ab565b602060405180830381600087803b158015611ade57600080fd5b505af1925050508015611b0f57506040513d601f19601f82011682018060405250810190611b0c9190612179565b60015b611b92573d8060008114611b3f576040519150601f19603f3d011682016040523d82523d6000602084013e611b44565b606091505b50600081511415611b8a576040517f08c379a0000000000000000000000000000000000000000000000000000000008152600401611b819061276a565b60405180910390fd5b805181602001fd5b63150b7a0260e01b7bffffffffffffffffffffffffffffffffffffffffffffffffffffffff1916817bffffffffffffffffffffffffffffffffffffffffffffffffffffffff191614915050611be7565b600190505b949350505050565b600073ffffffffffffffffffffffffffffffffffffffff168273ffffffffffffffffffffffffffffffffffffffff161415611c5f576040517f08c379a0000000000000000000000000000000000000000000000000000000008152600401611c569061286a565b60405180910390fd5b611c688161194a565b15611ca8576040517f08c379a0000000000000000000000000000000000000000000000000000000008152600401611c9f906127ca565b60405180910390fd5b611cb460008383611a4e565b6001600360008473ffffffffffffffffffffffffffffffffffffffff1673ffffffffffffffffffffffffffffffffffffffff1681526020019081526020016000206000828254611d0491906129ef565b92505081905550816002600083815260200190815260200160002060006101000a81548173ffffffffffffffffffffffffffffffffffffffff021916908373ffffffffffffffffffffffffffffffffffffffff160217905550808273ffffffffffffffffffffffffffffffffffffffff16600073ffffffffffffffffffffffffffffffffffffffff167fddf252ad1be2c89b69c2b068fc378daa952ba7f163c4a11628f55a4df523b3ef60405160405180910390a4611dc560008383611a53565b5050565b6000808273ffffffffffffffffffffffffffffffffffffffff163b119050919050565b6000611dff611dfa8461294a565b612925565b905082815260208101848484011115611e1b57611e1a612d34565b5b611e26848285612bce565b509392505050565b6000611e41611e3c8461297b565b612925565b905082815260208101848484011115611e5d57611e5c612d34565b5b611e68848285612bce565b509392505050565b600081359050611e7f816131d5565b92915050565b600081359050611e94816131ec565b92915050565b600081359050611ea981613203565b92915050565b600081519050611ebe81613203565b92915050565b600082601f830112611ed957611ed8612d2f565b5b8135611ee9848260208601611dec565b91505092915050565b600081359050611f018161321a565b92915050565b600081519050611f168161321a565b92915050565b600082601f830112611f3157611f30612d2f565b5b8135611f41848260208601611e2e565b91505092915050565b600081359050611f5981613231565b92915050565b600081519050611f6e81613231565b92915050565b600081519050611f8381613248565b92915050565b600060208284031215611f9f57611f9e612d3e565b5b6000611fad84828501611e70565b91505092915050565b60008060408385031215611fcd57611fcc612d3e565b5b6000611fdb85828601611e70565b9250506020611fec85828601611e70565b9150509250929050565b60008060006060848603121561200f5761200e612d3e565b5b600061201d86828701611e70565b935050602061202e86828701611e70565b925050604061203f86828701611f4a565b9150509250925092565b6000806000806080858703121561206357612062612d3e565b5b600061207187828801611e70565b945050602061208287828801611e70565b935050604061209387828801611f4a565b925050606085013567ffffffffffffffff8111156120b4576120b3612d39565b5b6120c087828801611ec4565b91505092959194509250565b600080604083850312156120e3576120e2612d3e565b5b60006120f185828601611e70565b925050602061210285828601611e85565b9150509250929050565b6000806040838503121561212357612122612d3e565b5b600061213185828601611e70565b925050602061214285828601611f4a565b9150509250929050565b60006020828403121561216257612161612d3e565b5b600061217084828501611e9a565b91505092915050565b60006020828403121561218f5761218e612d3e565b5b600061219d84828501611eaf565b91505092915050565b6000602082840312156121bc576121bb612d3e565b5b60006121ca84828501611ef2565b91505092915050565b6000602082840312156121e9576121e8612d3e565b5b600082013567ffffffffffffffff81111561220757612206612d39565b5b61221384828501611f1c565b91505092915050565b60006020828403121561223257612231612d3e565b5b600061224084828501611f4a565b91505092915050565b600080600080600060a0868803121561226557612264612d3e565b5b600061227388828901611f74565b955050602061228488828901611f07565b945050604061229588828901611f5f565b93505060606122a688828901611f5f565b92505060806122b788828901611f74565b9150509295509295909350565b6122cd81612b04565b82525050565b6122dc81612b16565b82525050565b60006122ed826129ac565b6122f781856129c2565b9350612307818560208601612bdd565b61231081612d43565b840191505092915050565b61232481612b98565b82525050565b61233381612b4e565b82525050565b6000612344826129b7565b61234e81856129d3565b935061235e818560208601612bdd565b61236781612d43565b840191505092915050565b600061237d826129b7565b61238781856129e4565b9350612397818560208601612bdd565b80840191505092915050565b60006123b06009836129e4565b91506123bb82612d54565b600982019050919050565b60006123d36032836129d3565b91506123de82612d7d565b604082019050919050565b60006123f66026836129d3565b915061240182612dcc565b604082019050919050565b60006124196025836129d3565b915061242482612e1b565b604082019050919050565b600061243c601c836129d3565b915061244782612e6a565b602082019050919050565b600061245f6024836129d3565b915061246a82612e93565b604082019050919050565b60006124826019836129d3565b915061248d82612ee2565b602082019050919050565b60006124a56029836129d3565b91506124b082612f0b565b604082019050919050565b60006124c86044836129e4565b91506124d382612f5a565b604482019050919050565b60006124eb6002836129e4565b91506124f682612fcf565b600282019050919050565b600061250e603e836129d3565b915061251982612ff8565b604082019050919050565b60006125316020836129d3565b915061253c82613047565b602082019050919050565b60006125546020836129d3565b915061255f82613070565b602082019050919050565b60006125776018836129d3565b915061258282613099565b602082019050919050565b600061259a6021836129d3565b91506125a5826130c2565b604082019050919050565b60006125bd602e836129d3565b91506125c882613111565b604082019050919050565b60006125e06043836129e4565b91506125eb82613160565b604382019050919050565b6125ff81612b78565b82525050565b60006126118284612372565b915081905092915050565b60006126288285612372565b91506126348284612372565b91508190509392505050565b600061264b826123a3565b91506126578285612372565b9150612662826124bb565b915061266d826125d3565b91506126798284612372565b9150612684826124de565b91508190509392505050565b60006020820190506126a560008301846122c4565b92915050565b60006080820190506126c060008301876122c4565b6126cd60208301866122c4565b6126da60408301856125f6565b81810360608301526126ec81846122e2565b905095945050505050565b600060208201905061270c60008301846122d3565b92915050565b6000602082019050612727600083018461231b565b92915050565b6000602082019050612742600083018461232a565b92915050565b600060208201905081810360008301526127628184612339565b905092915050565b60006020820190508181036000830152612783816123c6565b9050919050565b600060208201905081810360008301526127a3816123e9565b9050919050565b600060208201905081810360008301526127c38161240c565b9050919050565b600060208201905081810360008301526127e38161242f565b9050919050565b6000602082019050818103600083015261280381612452565b9050919050565b6000602082019050818103600083015261282381612475565b9050919050565b6000602082019050818103600083015261284381612498565b9050919050565b6000602082019050818103600083015261286381612501565b9050919050565b6000602082019050818103600083015261288381612524565b9050919050565b600060208201905081810360008301526128a381612547565b9050919050565b600060208201905081810360008301526128c38161256a565b9050919050565b600060208201905081810360008301526128e38161258d565b9050919050565b60006020820190508181036000830152612903816125b0565b9050919050565b600060208201905061291f60008301846125f6565b92915050565b600061292f612940565b905061293b8282612c42565b919050565b6000604051905090565b600067ffffffffffffffff82111561296557612964612d00565b5b61296e82612d43565b9050602081019050919050565b600067ffffffffffffffff82111561299657612995612d00565b5b61299f82612d43565b9050602081019050919050565b600081519050919050565b600081519050919050565b600082825260208201905092915050565b600082825260208201905092915050565b600081905092915050565b60006129fa82612b78565b9150612a0583612b78565b9250827fffffffffffffffffffffffffffffffffffffffffffffffffffffffffffffffff03821115612a3a57612a39612c73565b5b828201905092915050565b6000612a5082612b78565b9150612a5b83612b78565b925082612a6b57612a6a612ca2565b5b828204905092915050565b6000612a8182612b78565b9150612a8c83612b78565b9250817fffffffffffffffffffffffffffffffffffffffffffffffffffffffffffffffff0483118215151615612ac557612ac4612c73565b5b828202905092915050565b6000612adb82612b78565b9150612ae683612b78565b925082821015612af957612af8612c73565b5b828203905092915050565b6000612b0f82612b58565b9050919050565b60008115159050919050565b60007fffffffff0000000000000000000000000000000000000000000000000000000082169050919050565b6000819050919050565b600073ffffffffffffffffffffffffffffffffffffffff82169050919050565b6000819050919050565b600069ffffffffffffffffffff82169050919050565b6000612ba382612baa565b9050919050565b6000612bb582612bbc565b9050919050565b6000612bc782612b58565b9050919050565b82818337600083830152505050565b60005b83811015612bfb578082015181840152602081019050612be0565b83811115612c0a576000848401525b50505050565b60006002820490506001821680612c2857607f821691505b60208210811415612c3c57612c3b612cd1565b5b50919050565b612c4b82612d43565b810181811067ffffffffffffffff82111715612c6a57612c69612d00565b5b80604052505050565b7f4e487b7100000000000000000000000000000000000000000000000000000000600052601160045260246000fd5b7f4e487b7100000000000000000000000000000000000000000000000000000000600052601260045260246000fd5b7f4e487b7100000000000000000000000000000000000000000000000000000000600052602260045260246000fd5b7f4e487b7100000000000000000000000000000000000000000000000000000000600052604160045260246000fd5b600080fd5b600080fd5b600080fd5b600080fd5b6000601f19601f8301169050919050565b7f7b226e616d65223a220000000000000000000000000000000000000000000000600082015250565b7f4552433732313a207472616e7366657220746f206e6f6e20455243373231526560008201527f63656976657220696d706c656d656e7465720000000000000000000000000000602082015250565b7f4f776e61626c653a206e6577206f776e657220697320746865207a65726f206160008201527f6464726573730000000000000000000000000000000000000000000000000000602082015250565b7f4552433732313a207472616e736665722066726f6d20696e636f72726563742060008201527f6f776e6572000000000000000000000000000000000000000000000000000000602082015250565b7f4552433732313a20746f6b656e20616c7265616479206d696e74656400000000600082015250565b7f4552433732313a207472616e7366657220746f20746865207a65726f2061646460008201527f7265737300000000000000000000000000000000000000000000000000000000602082015250565b7f4552433732313a20617070726f766520746f2063616c6c657200000000000000600082015250565b7f4552433732313a2061646472657373207a65726f206973206e6f74206120766160008201527f6c6964206f776e65720000000000000000000000000000000000000000000000602082015250565b7f222c20226465736372697074696f6e223a22416e204e4654207468617420636860008201527f616e676573206261736564206f6e2074686520436861696e6c696e6b2046656560208201527f64222c2000000000000000000000000000000000000000000000000000000000604082015250565b7f227d000000000000000000000000000000000000000000000000000000000000600082015250565b7f4552433732313a20617070726f76652063616c6c6572206973206e6f7420746f60008201527f6b656e206f776e6572206e6f7220617070726f76656420666f7220616c6c0000602082015250565b7f4552433732313a206d696e7420746f20746865207a65726f2061646472657373600082015250565b7f4f776e61626c653a2063616c6c6572206973206e6f7420746865206f776e6572600082015250565b7f4552433732313a20696e76616c696420746f6b656e2049440000000000000000600082015250565b7f4552433732313a20617070726f76616c20746f2063757272656e74206f776e6560008201527f7200000000000000000000000000000000000000000000000000000000000000602082015250565b7f4552433732313a2063616c6c6572206973206e6f7420746f6b656e206f776e6560008201527f72206e6f7220617070726f766564000000000000000000000000000000000000602082015250565b7f2261747472696275746573223a205b7b2274726169745f74797065223a20226360008201527f6f6f6c6e657373222c202276616c7565223a203130307d5d2c2022696d61676560208201527f223a220000000000000000000000000000000000000000000000000000000000604082015250565b6131de81612b04565b81146131e957600080fd5b50565b6131f581612b16565b811461320057600080fd5b50565b61320c81612b22565b811461321757600080fd5b50565b61322381612b4e565b811461322e57600080fd5b50565b61323a81612b78565b811461324557600080fd5b50565b61325181612b82565b811461325c57600080fd5b5056fe4142434445464748494a4b4c4d4e4f505152535455565758595a6162636465666768696a6b6c6d6e6f707172737475767778797a303132333435363738392b2fa2646970667358221220540172a7deb4f28855049c7fe055bc938db3aa39b58517b89a0ba4263950924d64736f6c634300080700334142434445464748494a4b4c4d4e4f505152535455565758595a6162636465666768696a6b6c6d6e6f707172737475767778797a303132333435363738392b2f",
  "linkReferences": {},
  "deployedLinkReferences": {}
}