{
  "_format": "hh-sol-artifact-1",
  "contractName": "RandomIpfsNft",
  "sourceName": "contracts/RandomIPFSNft.sol",
  "abi": [
    {
      "inputs": [
        {
          "internalType": "address",
          "name": "vrfCoordinatorV2",
          "type": "address"
        },
        {
          "internalType": "uint64",
          "name": "subscriptionId",
          "type": "uint64"
        },
        {
          "internalType": "bytes32",
          "name": "gasLane",
          "type": "bytes32"
        },
        {
          "internalType": "uint32",
          "name": "callbackGasLimit",
          "type": "uint32"
        },
        {
          "internalType": "string[3]",
          "name": "tokenUris",
          "type": "string[3]"
        },
        {
          "internalType": "uint256",
          "name": "mintFee",
          "type": "uint256"
        }
      ],
      "stateMutability": "nonpayable",
      "type": "constructor"
    },
    {
      "inputs": [
        {
          "internalType": "address",
          "name": "have",
          "type": "address"
        },
        {
          "internalType": "address",
          "name": "want",
          "type": "address"
        }
      ],
      "name": "OnlyCoordinatorCanFulfill",
      "type": "error"
    },
    {
      "inputs": [],
      "name": "RandomIpfsNft__NotEnoughEthPaid",
      "type": "error"
    },
    {
      "inputs": [],
      "name": "RandomIpfsNft__RangeOutOfBound",
      "type": "error"
    },
    {
      "inputs": [],
      "name": "RandomIpfsNft__TransferFailed",
      "type": "error"
    },
    {
      "anonymous": false,
      "inputs": [
        {
          "indexed": true,
          "internalType": "address",
          "name": "owner",
          "type": "address"
        },
        {
          "indexed": true,
          "internalType": "address",
          "name": "approved",
          "type": "address"
        },
        {
          "indexed": true,
          "internalType": "uint256",
          "name": "tokenId",
          "type": "uint256"
        }
      ],
      "name": "Approval",
      "type": "event"
    },
    {
      "anonymous": false,
      "inputs": [
        {
          "indexed": true,
          "internalType": "address",
          "name": "owner",
          "type": "address"
        },
        {
          "indexed": true,
          "internalType": "address",
          "name": "operator",
          "type": "address"
        },
        {
          "indexed": false,
          "internalType": "bool",
          "name": "approved",
          "type": "bool"
        }
      ],
      "name": "ApprovalForAll",
      "type": "event"
    },
    {
      "anonymous": false,
      "inputs": [
        {
          "indexed": false,
          "internalType": "enum RandomIpfsNft.Breed",
          "name": "dogBreed",
          "type": "uint8"
        },
        {
          "indexed": false,
          "internalType": "address",
          "name": "minter",
          "type": "address"
        }
      ],
      "name": "NftMinted",
      "type": "event"
    },
    {
      "anonymous": false,
      "inputs": [
        {
          "indexed": false,
          "internalType": "uint256",
          "name": "requestId",
          "type": "uint256"
        },
        {
          "indexed": false,
          "internalType": "address",
          "name": "requester",
          "type": "address"
        }
      ],
      "name": "NftRequested",
      "type": "event"
    },
    {
      "anonymous": false,
      "inputs": [
        {
          "indexed": true,
          "internalType": "address",
          "name": "previousOwner",
          "type": "address"
        },
        {
          "indexed": true,
          "internalType": "address",
          "name": "newOwner",
          "type": "address"
        }
      ],
      "name": "OwnershipTransferred",
      "type": "event"
    },
    {
      "anonymous": false,
      "inputs": [
        {
          "indexed": true,
          "internalType": "address",
          "name": "from",
          "type": "address"
        },
        {
          "indexed": true,
          "internalType": "address",
          "name": "to",
          "type": "address"
        },
        {
          "indexed": true,
          "internalType": "uint256",
          "name": "tokenId",
          "type": "uint256"
        }
      ],
      "name": "Transfer",
      "type": "event"
    },
    {
      "inputs": [
        {
          "internalType": "address",
          "name": "to",
          "type": "address"
        },
        {
          "internalType": "uint256",
          "name": "tokenId",
          "type": "uint256"
        }
      ],
      "name": "approve",
      "outputs": [],
      "stateMutability": "nonpayable",
      "type": "function"
    },
    {
      "inputs": [
        {
          "internalType": "address",
          "name": "owner",
          "type": "address"
        }
      ],
      "name": "balanceOf",
      "outputs": [
        {
          "internalType": "uint256",
          "name": "",
          "type": "uint256"
        }
      ],
      "stateMutability": "view",
      "type": "function"
    },
    {
      "inputs": [
        {
          "internalType": "uint256",
          "name": "tokenId",
          "type": "uint256"
        }
      ],
      "name": "getApproved",
      "outputs": [
        {
          "internalType": "address",
          "name": "",
          "type": "address"
        }
      ],
      "stateMutability": "view",
      "type": "function"
    },
    {
      "inputs": [
        {
          "internalType": "uint256",
          "name": "moddedRng",
          "type": "uint256"
        }
      ],
      "name": "getBreedFromModdedRng",
      "outputs": [
        {
          "internalType": "enum RandomIpfsNft.Breed",
          "name": "",
          "type": "uint8"
        }
      ],
      "stateMutability": "pure",
      "type": "function"
    },
    {
      "inputs": [],
      "name": "getChanceArray",
      "outputs": [
        {
          "internalType": "uint256[3]",
          "name": "",
          "type": "uint256[3]"
        }
      ],
      "stateMutability": "pure",
      "type": "function"
    },
    {
      "inputs": [
        {
          "internalType": "uint256",
          "name": "index",
          "type": "uint256"
        }
      ],
      "name": "getDogTokenUris",
      "outputs": [
        {
          "internalType": "string",
          "name": "",
          "type": "string"
        }
      ],
      "stateMutability": "view",
      "type": "function"
    },
    {
      "inputs": [],
      "name": "getMintFee",
      "outputs": [
        {
          "internalType": "uint256",
          "name": "",
          "type": "uint256"
        }
      ],
      "stateMutability": "view",
      "type": "function"
    },
    {
      "inputs": [],
      "name": "getTokenCounter",
      "outputs": [
        {
          "internalType": "uint256",
          "name": "",
          "type": "uint256"
        }
      ],
      "stateMutability": "view",
      "type": "function"
    },
    {
      "inputs": [
        {
          "internalType": "address",
          "name": "owner",
          "type": "address"
        },
        {
          "internalType": "address",
          "name": "operator",
          "type": "address"
        }
      ],
      "name": "isApprovedForAll",
      "outputs": [
        {
          "internalType": "bool",
          "name": "",
          "type": "bool"
        }
      ],
      "stateMutability": "view",
      "type": "function"
    },
    {
      "inputs": [],
      "name": "name",
      "outputs": [
        {
          "internalType": "string",
          "name": "",
          "type": "string"
        }
      ],
      "stateMutability": "view",
      "type": "function"
    },
    {
      "inputs": [],
      "name": "owner",
      "outputs": [
        {
          "internalType": "address",
          "name": "",
          "type": "address"
        }
      ],
      "stateMutability": "view",
      "type": "function"
    },
    {
      "inputs": [
        {
          "internalType": "uint256",
          "name": "tokenId",
          "type": "uint256"
        }
      ],
      "name": "ownerOf",
      "outputs": [
        {
          "internalType": "address",
          "name": "",
          "type": "address"
        }
      ],
      "stateMutability": "view",
      "type": "function"
    },
    {
      "inputs": [
        {
          "internalType": "uint256",
          "name": "requestId",
          "type": "uint256"
        },
        {
          "internalType": "uint256[]",
          "name": "randomWords",
          "type": "uint256[]"
        }
      ],
      "name": "rawFulfillRandomWords",
      "outputs": [],
      "stateMutability": "nonpayable",
      "type": "function"
    },
    {
      "inputs": [],
      "name": "renounceOwnership",
      "outputs": [],
      "stateMutability": "nonpayable",
      "type": "function"
    },
    {
      "inputs": [],
      "name": "requestNft",
      "outputs": [
        {
          "internalType": "uint256",
          "name": "requestId",
          "type": "uint256"
        }
      ],
      "stateMutability": "payable",
      "type": "function"
    },
    {
      "inputs": [],
      "name": "s_tokenCounter",
      "outputs": [
        {
          "internalType": "uint256",
          "name": "",
          "type": "uint256"
        }
      ],
      "stateMutability": "view",
      "type": "function"
    },
    {
      "inputs": [
        {
          "internalType": "address",
          "name": "from",
          "type": "address"
        },
        {
          "internalType": "address",
          "name": "to",
          "type": "address"
        },
        {
          "internalType": "uint256",
          "name": "tokenId",
          "type": "uint256"
        }
      ],
      "name": "safeTransferFrom",
      "outputs": [],
      "stateMutability": "nonpayable",
      "type": "function"
    },
    {
      "inputs": [
        {
          "internalType": "address",
          "name": "from",
          "type": "address"
        },
        {
          "internalType": "address",
          "name": "to",
          "type": "address"
        },
        {
          "internalType": "uint256",
          "name": "tokenId",
          "type": "uint256"
        },
        {
          "internalType": "bytes",
          "name": "data",
          "type": "bytes"
        }
      ],
      "name": "safeTransferFrom",
      "outputs": [],
      "stateMutability": "nonpayable",
      "type": "function"
    },
    {
      "inputs": [
        {
          "internalType": "address",
          "name": "operator",
          "type": "address"
        },
        {
          "internalType": "bool",
          "name": "approved",
          "type": "bool"
        }
      ],
      "name": "setApprovalForAll",
      "outputs": [],
      "stateMutability": "nonpayable",
      "type": "function"
    },
    {
      "inputs": [
        {
          "internalType": "bytes4",
          "name": "interfaceId",
          "type": "bytes4"
        }
      ],
      "name": "supportsInterface",
      "outputs": [
        {
          "internalType": "bool",
          "name": "",
          "type": "bool"
        }
      ],
      "stateMutability": "view",
      "type": "function"
    },
    {
      "inputs": [],
      "name": "symbol",
      "outputs": [
        {
          "internalType": "string",
          "name": "",
          "type": "string"
        }
      ],
      "stateMutability": "view",
      "type": "function"
    },
    {
      "inputs": [
        {
          "internalType": "uint256",
          "name": "tokenId",
          "type": "uint256"
        }
      ],
      "name": "tokenURI",
      "outputs": [
        {
          "internalType": "string",
          "name": "",
          "type": "string"
        }
      ],
      "stateMutability": "view",
      "type": "function"
    },
    {
      "inputs": [
        {
          "internalType": "address",
          "name": "from",
          "type": "address"
        },
        {
          "internalType": "address",
          "name": "to",
          "type": "address"
        },
        {
          "internalType": "uint256",
          "name": "tokenId",
          "type": "uint256"
        }
      ],
      "name": "transferFrom",
      "outputs": [],
      "stateMutability": "nonpayable",
      "type": "function"
    },
    {
      "inputs": [
        {
          "internalType": "address",
          "name": "newOwner",
          "type": "address"
        }
      ],
      "name": "transferOwnership",
      "outputs": [],
      "stateMutability": "nonpayable",
      "type": "function"
    },
    {
      "inputs": [],
      "name": "withdraw",
      "outputs": [],
      "stateMutability": "nonpayable",
      "type": "function"
    }
  ],
  "bytecode": "0x6101406040523480156200001257600080fd5b50604051620042c9380380620042c98339818101604052810190620000389190620005d7565b6040518060400160405280600681526020017f446f674e667400000000000000000000000000000000000000000000000000008152506040518060400160405280600381526020017f444f470000000000000000000000000000000000000000000000000000000000815250878073ffffffffffffffffffffffffffffffffffffffff1660808173ffffffffffffffffffffffffffffffffffffffff1660601b81525050508160009080519060200190620000f59291906200029e565b5080600190805190602001906200010e9291906200029e565b5050506200013162000125620001d060201b60201c565b620001d860201b60201c565b8061012081815250508573ffffffffffffffffffffffffffffffffffffffff1660a08173ffffffffffffffffffffffffffffffffffffffff1660601b815250508360c081815250508160089060036200018c9291906200032f565b508467ffffffffffffffff1660e08167ffffffffffffffff1660c01b815250508263ffffffff166101008163ffffffff1660e01b8152505050505050505062000932565b600033905090565b6000600760009054906101000a900473ffffffffffffffffffffffffffffffffffffffff16905081600760006101000a81548173ffffffffffffffffffffffffffffffffffffffff021916908373ffffffffffffffffffffffffffffffffffffffff1602179055508173ffffffffffffffffffffffffffffffffffffffff168173ffffffffffffffffffffffffffffffffffffffff167f8be0079c531659141344cd1fd0a4f28419497f9722a3daafe3b4186f6b6457e060405160405180910390a35050565b828054620002ac90620007bc565b90600052602060002090601f016020900481019282620002d057600085556200031c565b82601f10620002eb57805160ff19168380011785556200031c565b828001600101855582156200031c579182015b828111156200031b578251825591602001919060010190620002fe565b5b5090506200032b919062000396565b5090565b82805482825590600052602060002090810192821562000383579160200282015b8281111562000382578251829080519060200190620003719291906200029e565b509160200191906001019062000350565b5b509050620003929190620003b5565b5090565b5b80821115620003b157600081600090555060010162000397565b5090565b5b80821115620003d95760008181620003cf9190620003dd565b50600101620003b6565b5090565b508054620003eb90620007bc565b6000825580601f10620003ff575062000420565b601f0160209004906000526020600020908101906200041f919062000396565b5b50565b60006200043a6200043484620006bb565b62000692565b905080828560208602820111156200045757620004566200088b565b5b60005b85811015620004ac57815167ffffffffffffffff81111562000481576200048062000886565b5b8086016200049089826200055f565b855260208501945060208401935050506001810190506200045a565b5050509392505050565b6000620004cd620004c784620006e4565b62000692565b905082815260208101848484011115620004ec57620004eb62000890565b5b620004f984828562000786565b509392505050565b6000815190506200051281620008b0565b92915050565b600082601f83011262000530576200052f62000886565b5b60036200053f84828562000423565b91505092915050565b6000815190506200055981620008ca565b92915050565b600082601f83011262000577576200057662000886565b5b815162000589848260208601620004b6565b91505092915050565b600081519050620005a381620008e4565b92915050565b600081519050620005ba81620008fe565b92915050565b600081519050620005d18162000918565b92915050565b60008060008060008060c08789031215620005f757620005f66200089a565b5b60006200060789828a0162000501565b96505060206200061a89828a01620005c0565b95505060406200062d89828a0162000548565b94505060606200064089828a01620005a9565b935050608087015167ffffffffffffffff81111562000664576200066362000895565b5b6200067289828a0162000518565b92505060a06200068589828a0162000592565b9150509295509295509295565b60006200069e620006b1565b9050620006ac8282620007f2565b919050565b6000604051905090565b600067ffffffffffffffff821115620006d957620006d862000857565b5b602082029050919050565b600067ffffffffffffffff82111562000702576200070162000857565b5b6200070d826200089f565b9050602081019050919050565b6000620007278262000738565b9050919050565b6000819050919050565b600073ffffffffffffffffffffffffffffffffffffffff82169050919050565b6000819050919050565b600063ffffffff82169050919050565b600067ffffffffffffffff82169050919050565b60005b83811015620007a657808201518184015260208101905062000789565b83811115620007b6576000848401525b50505050565b60006002820490506001821680620007d557607f821691505b60208210811415620007ec57620007eb62000828565b5b50919050565b620007fd826200089f565b810181811067ffffffffffffffff821117156200081f576200081e62000857565b5b80604052505050565b7f4e487b7100000000000000000000000000000000000000000000000000000000600052602260045260246000fd5b7f4e487b7100000000000000000000000000000000000000000000000000000000600052604160045260246000fd5b600080fd5b600080fd5b600080fd5b600080fd5b600080fd5b6000601f19601f8301169050919050565b620008bb816200071a565b8114620008c757600080fd5b50565b620008d5816200072e565b8114620008e157600080fd5b50565b620008ef8162000758565b8114620008fb57600080fd5b50565b620009098162000762565b81146200091557600080fd5b50565b620009238162000772565b81146200092f57600080fd5b50565b60805160601c60a05160601c60c05160e05160c01c6101005160e01c6101205161392d6200099c60003960008181610d1e0152610efa01526000610fd401526000610fb101526000610f9001526000610f540152600081816108c50152610919015261392d6000f3fe6080604052600436106101665760003560e01c80636e02007d116100d1578063a22cb4651161008a578063b88d4fde11610064578063b88d4fde1461051f578063c87b56dd14610548578063e985e9c514610585578063f2fde38b146105c257610166565b8063a22cb4651461049b578063a51cccf3146104c4578063aa1524911461050157610166565b80636e02007d1461039b57806370a08231146103c6578063715018a6146104035780637a5caab31461041a5780638da5cb5b1461044557806395d89b411461047057610166565b806323b872dd1161012357806323b872dd1461028d5780633af25975146102b65780633ccfd60b146102f357806342842e0e1461030a5780635dacf5f4146103335780636352211e1461035e57610166565b806301ffc9a71461016b57806306fdde03146101a8578063081812fc146101d3578063095ea7b3146102105780630b21a83b146102395780631fe543e314610264575b600080fd5b34801561017757600080fd5b50610192600480360381019061018d919061278e565b6105eb565b60405161019f9190612d28565b60405180910390f35b3480156101b457600080fd5b506101bd6106cd565b6040516101ca9190612dda565b60405180910390f35b3480156101df57600080fd5b506101fa60048036038101906101f591906127e8565b61075f565b6040516102079190612c7d565b60405180910390f35b34801561021c57600080fd5b506102376004803603810190610232919061274e565b6107a5565b005b34801561024557600080fd5b5061024e6108bd565b60405161025b9190612fbc565b60405180910390f35b34801561027057600080fd5b5061028b60048036038101906102869190612842565b6108c3565b005b34801561029957600080fd5b506102b460048036038101906102af9190612638565b610983565b005b3480156102c257600080fd5b506102dd60048036038101906102d891906127e8565b6109e3565b6040516102ea9190612dda565b60405180910390f35b3480156102ff57600080fd5b50610308610a93565b005b34801561031657600080fd5b50610331600480360381019061032c9190612638565b610b47565b005b34801561033f57600080fd5b50610348610b67565b6040516103559190612d0d565b60405180910390f35b34801561036a57600080fd5b50610385600480360381019061038091906127e8565b610b92565b6040516103929190612c7d565b60405180910390f35b3480156103a757600080fd5b506103b0610c44565b6040516103bd9190612fbc565b60405180910390f35b3480156103d257600080fd5b506103ed60048036038101906103e891906125cb565b610c4e565b6040516103fa9190612fbc565b60405180910390f35b34801561040f57600080fd5b50610418610d06565b005b34801561042657600080fd5b5061042f610d1a565b60405161043c9190612fbc565b60405180910390f35b34801561045157600080fd5b5061045a610d42565b6040516104679190612c7d565b60405180910390f35b34801561047c57600080fd5b50610485610d6c565b6040516104929190612dda565b60405180910390f35b3480156104a757600080fd5b506104c260048036038101906104bd919061270e565b610dfe565b005b3480156104d057600080fd5b506104eb60048036038101906104e691906127e8565b610e14565b6040516104f89190612d96565b60405180910390f35b610509610ef6565b6040516105169190612fbc565b60405180910390f35b34801561052b57600080fd5b506105466004803603810190610541919061268b565b6110f7565b005b34801561055457600080fd5b5061056f600480360381019061056a91906127e8565b611159565b60405161057c9190612dda565b60405180910390f35b34801561059157600080fd5b506105ac60048036038101906105a791906125f8565b61126c565b6040516105b99190612d28565b60405180910390f35b3480156105ce57600080fd5b506105e960048036038101906105e491906125cb565b611300565b005b60007f80ac58cd000000000000000000000000000000000000000000000000000000007bffffffffffffffffffffffffffffffffffffffffffffffffffffffff1916827bffffffffffffffffffffffffffffffffffffffffffffffffffffffff191614806106b657507f5b5e139f000000000000000000000000000000000000000000000000000000007bffffffffffffffffffffffffffffffffffffffffffffffffffffffff1916827bffffffffffffffffffffffffffffffffffffffffffffffffffffffff1916145b806106c657506106c582611384565b5b9050919050565b6060600080546106dc906132cf565b80601f0160208091040260200160405190810160405280929190818152602001828054610708906132cf565b80156107555780601f1061072a57610100808354040283529160200191610755565b820191906000526020600020905b81548152906001019060200180831161073857829003601f168201915b5050505050905090565b600061076a826113ee565b6004600083815260200190815260200160002060009054906101000a900473ffffffffffffffffffffffffffffffffffffffff169050919050565b60006107b082610b92565b90508073ffffffffffffffffffffffffffffffffffffffff168373ffffffffffffffffffffffffffffffffffffffff161415610821576040517f08c379a000000000000000000000000000000000000000000000000000000000815260040161081890612f7c565b60405180910390fd5b8073ffffffffffffffffffffffffffffffffffffffff16610840611439565b73ffffffffffffffffffffffffffffffffffffffff16148061086f575061086e81610869611439565b61126c565b5b6108ae576040517f08c379a00000000000000000000000000000000000000000000000000000000081526004016108a590612efc565b60405180910390fd5b6108b88383611441565b505050565b600a5481565b7f000000000000000000000000000000000000000000000000000000000000000073ffffffffffffffffffffffffffffffffffffffff163373ffffffffffffffffffffffffffffffffffffffff161461097557337f00000000000000000000000000000000000000000000000000000000000000006040517f1cf993f400000000000000000000000000000000000000000000000000000000815260040161096c929190612c98565b60405180910390fd5b61097f82826114fa565b5050565b61099461098e611439565b8261169a565b6109d3576040517f08c379a00000000000000000000000000000000000000000000000000000000081526004016109ca90612f9c565b60405180910390fd5b6109de83838361172f565b505050565b6060600882815481106109f9576109f8613468565b5b906000526020600020018054610a0e906132cf565b80601f0160208091040260200160405190810160405280929190818152602001828054610a3a906132cf565b8015610a875780601f10610a5c57610100808354040283529160200191610a87565b820191906000526020600020905b815481529060010190602001808311610a6a57829003601f168201915b50505050509050919050565b610a9b611996565b600047905060003373ffffffffffffffffffffffffffffffffffffffff1682604051610ac690612c68565b60006040518083038185875af1925050503d8060008114610b03576040519150601f19603f3d011682016040523d82523d6000602084013e610b08565b606091505b5050905080610b43576040517fca7e25b700000000000000000000000000000000000000000000000000000000815260040160405180910390fd5b5050565b610b62838383604051806020016040528060008152506110f7565b505050565b610b6f61237a565b6040518060600160405280600a8152602001601e81526020016064815250905090565b6000806002600084815260200190815260200160002060009054906101000a900473ffffffffffffffffffffffffffffffffffffffff169050600073ffffffffffffffffffffffffffffffffffffffff168173ffffffffffffffffffffffffffffffffffffffff161415610c3b576040517f08c379a0000000000000000000000000000000000000000000000000000000008152600401610c3290612f5c565b60405180910390fd5b80915050919050565b6000600a54905090565b60008073ffffffffffffffffffffffffffffffffffffffff168273ffffffffffffffffffffffffffffffffffffffff161415610cbf576040517f08c379a0000000000000000000000000000000000000000000000000000000008152600401610cb690612ebc565b60405180910390fd5b600360008373ffffffffffffffffffffffffffffffffffffffff1673ffffffffffffffffffffffffffffffffffffffff168152602001908152602001600020549050919050565b610d0e611996565b610d186000611a14565b565b60007f0000000000000000000000000000000000000000000000000000000000000000905090565b6000600760009054906101000a900473ffffffffffffffffffffffffffffffffffffffff16905090565b606060018054610d7b906132cf565b80601f0160208091040260200160405190810160405280929190818152602001828054610da7906132cf565b8015610df45780601f10610dc957610100808354040283529160200191610df4565b820191906000526020600020905b815481529060010190602001808311610dd757829003601f168201915b5050505050905090565b610e10610e09611439565b8383611ada565b5050565b600080600090506000610e25610b67565b905060005b6003811015610ebe57828510158015610e645750818160038110610e5157610e50613468565b5b602002015183610e6191906130fd565b85105b15610e8657806002811115610e7c57610e7b61340a565b5b9350505050610ef1565b818160038110610e9957610e98613468565b5b602002015183610ea991906130fd565b92508080610eb690613332565b915050610e2a565b506040517f3c4b8a8500000000000000000000000000000000000000000000000000000000815260040160405180910390fd5b919050565b60007f0000000000000000000000000000000000000000000000000000000000000000341015610f52576040517f5d10cca400000000000000000000000000000000000000000000000000000000815260040160405180910390fd5b7f000000000000000000000000000000000000000000000000000000000000000073ffffffffffffffffffffffffffffffffffffffff16635d3b1d307f00000000000000000000000000000000000000000000000000000000000000007f000000000000000000000000000000000000000000000000000000000000000060037f000000000000000000000000000000000000000000000000000000000000000060016040518663ffffffff1660e01b8152600401611015959493929190612d43565b602060405180830381600087803b15801561102f57600080fd5b505af1158015611043573d6000803e3d6000fd5b505050506040513d601f19601f820116820180604052508101906110679190612815565b9050336009600083815260200190815260200160002060006101000a81548173ffffffffffffffffffffffffffffffffffffffff021916908373ffffffffffffffffffffffffffffffffffffffff1602179055507ff873236e6cc0ecc5be1a9a35c95ee5b8d1ac4cc7bfef0cc5060391d6cc98e26b81336040516110ec929190612fd7565b60405180910390a190565b611108611102611439565b8361169a565b611147576040517f08c379a000000000000000000000000000000000000000000000000000000000815260040161113e90612f9c565b60405180910390fd5b61115384848484611c47565b50505050565b6060611164826113ee565b6000600660008481526020019081526020016000208054611184906132cf565b80601f01602080910402602001604051908101604052809291908181526020018280546111b0906132cf565b80156111fd5780601f106111d2576101008083540402835291602001916111fd565b820191906000526020600020905b8154815290600101906020018083116111e057829003601f168201915b50505050509050600061120e611ca3565b9050600081511415611224578192505050611267565b600082511115611259578082604051602001611241929190612c44565b60405160208183030381529060405292505050611267565b61126284611cba565b925050505b919050565b6000600560008473ffffffffffffffffffffffffffffffffffffffff1673ffffffffffffffffffffffffffffffffffffffff16815260200190815260200160002060008373ffffffffffffffffffffffffffffffffffffffff1673ffffffffffffffffffffffffffffffffffffffff16815260200190815260200160002060009054906101000a900460ff16905092915050565b611308611996565b600073ffffffffffffffffffffffffffffffffffffffff168173ffffffffffffffffffffffffffffffffffffffff161415611378576040517f08c379a000000000000000000000000000000000000000000000000000000000815260040161136f90612e1c565b60405180910390fd5b61138181611a14565b50565b60007f01ffc9a7000000000000000000000000000000000000000000000000000000007bffffffffffffffffffffffffffffffffffffffffffffffffffffffff1916827bffffffffffffffffffffffffffffffffffffffffffffffffffffffff1916149050919050565b6113f781611d22565b611436576040517f08c379a000000000000000000000000000000000000000000000000000000000815260040161142d90612f5c565b60405180910390fd5b50565b600033905090565b816004600083815260200190815260200160002060006101000a81548173ffffffffffffffffffffffffffffffffffffffff021916908373ffffffffffffffffffffffffffffffffffffffff160217905550808273ffffffffffffffffffffffffffffffffffffffff166114b483610b92565b73ffffffffffffffffffffffffffffffffffffffff167f8c5be1e5ebec7d5bd14f71427d1e84f3dd0314c0f7b2291e5b200ac8c7c3b92560405160405180910390a45050565b60006009600084815260200190815260200160002060009054906101000a900473ffffffffffffffffffffffffffffffffffffffff1690506000600a549050600060648460008151811061155157611550613468565b5b6020026020010151611563919061337b565b9050600061157082610e14565b905061157c8484611d8e565b600a54600a600082825461159091906130fd565b925050819055506116598360088360028111156115b0576115af61340a565b5b815481106115c1576115c0613468565b5b9060005260206000200180546115d6906132cf565b80601f0160208091040260200160405190810160405280929190818152602001828054611602906132cf565b801561164f5780601f106116245761010080835404028352916020019161164f565b820191906000526020600020905b81548152906001019060200180831161163257829003601f168201915b5050505050611dac565b7f8a269f26b688e110e9cbd887d163dab35cae678fa353a0292de532c0cac1ecdc818560405161168a929190612db1565b60405180910390a1505050505050565b6000806116a683610b92565b90508073ffffffffffffffffffffffffffffffffffffffff168473ffffffffffffffffffffffffffffffffffffffff1614806116e857506116e7818561126c565b5b8061172657508373ffffffffffffffffffffffffffffffffffffffff1661170e8461075f565b73ffffffffffffffffffffffffffffffffffffffff16145b91505092915050565b8273ffffffffffffffffffffffffffffffffffffffff1661174f82610b92565b73ffffffffffffffffffffffffffffffffffffffff16146117a5576040517f08c379a000000000000000000000000000000000000000000000000000000000815260040161179c90612e3c565b60405180910390fd5b600073ffffffffffffffffffffffffffffffffffffffff168273ffffffffffffffffffffffffffffffffffffffff161415611815576040517f08c379a000000000000000000000000000000000000000000000000000000000815260040161180c90612e7c565b60405180910390fd5b611820838383611e20565b61182b600082611441565b6001600360008573ffffffffffffffffffffffffffffffffffffffff1673ffffffffffffffffffffffffffffffffffffffff168152602001908152602001600020600082825461187b9190613184565b925050819055506001600360008473ffffffffffffffffffffffffffffffffffffffff1673ffffffffffffffffffffffffffffffffffffffff16815260200190815260200160002060008282546118d291906130fd565b92505081905550816002600083815260200190815260200160002060006101000a81548173ffffffffffffffffffffffffffffffffffffffff021916908373ffffffffffffffffffffffffffffffffffffffff160217905550808273ffffffffffffffffffffffffffffffffffffffff168473ffffffffffffffffffffffffffffffffffffffff167fddf252ad1be2c89b69c2b068fc378daa952ba7f163c4a11628f55a4df523b3ef60405160405180910390a4611991838383611e25565b505050565b61199e611439565b73ffffffffffffffffffffffffffffffffffffffff166119bc610d42565b73ffffffffffffffffffffffffffffffffffffffff1614611a12576040517f08c379a0000000000000000000000000000000000000000000000000000000008152600401611a0990612f3c565b60405180910390fd5b565b6000600760009054906101000a900473ffffffffffffffffffffffffffffffffffffffff16905081600760006101000a81548173ffffffffffffffffffffffffffffffffffffffff021916908373ffffffffffffffffffffffffffffffffffffffff1602179055508173ffffffffffffffffffffffffffffffffffffffff168173ffffffffffffffffffffffffffffffffffffffff167f8be0079c531659141344cd1fd0a4f28419497f9722a3daafe3b4186f6b6457e060405160405180910390a35050565b8173ffffffffffffffffffffffffffffffffffffffff168373ffffffffffffffffffffffffffffffffffffffff161415611b49576040517f08c379a0000000000000000000000000000000000000000000000000000000008152600401611b4090612e9c565b60405180910390fd5b80600560008573ffffffffffffffffffffffffffffffffffffffff1673ffffffffffffffffffffffffffffffffffffffff16815260200190815260200160002060008473ffffffffffffffffffffffffffffffffffffffff1673ffffffffffffffffffffffffffffffffffffffff16815260200190815260200160002060006101000a81548160ff0219169083151502179055508173ffffffffffffffffffffffffffffffffffffffff168373ffffffffffffffffffffffffffffffffffffffff167f17307eab39ab6107e8899845ad3d59bd9653f200f220920489ca2b5937696c3183604051611c3a9190612d28565b60405180910390a3505050565b611c5284848461172f565b611c5e84848484611e2a565b611c9d576040517f08c379a0000000000000000000000000000000000000000000000000000000008152600401611c9490612dfc565b60405180910390fd5b50505050565b606060405180602001604052806000815250905090565b6060611cc5826113ee565b6000611ccf611ca3565b90506000815111611cef5760405180602001604052806000815250611d1a565b80611cf984611fc1565b604051602001611d0a929190612c44565b6040516020818303038152906040525b915050919050565b60008073ffffffffffffffffffffffffffffffffffffffff166002600084815260200190815260200160002060009054906101000a900473ffffffffffffffffffffffffffffffffffffffff1673ffffffffffffffffffffffffffffffffffffffff1614159050919050565b611da8828260405180602001604052806000815250612122565b5050565b611db582611d22565b611df4576040517f08c379a0000000000000000000000000000000000000000000000000000000008152600401611deb90612edc565b60405180910390fd5b80600660008481526020019081526020016000209080519060200190611e1b92919061239c565b505050565b505050565b505050565b6000611e4b8473ffffffffffffffffffffffffffffffffffffffff1661217d565b15611fb4578373ffffffffffffffffffffffffffffffffffffffff1663150b7a02611e74611439565b8786866040518563ffffffff1660e01b8152600401611e969493929190612cc1565b602060405180830381600087803b158015611eb057600080fd5b505af1925050508015611ee157506040513d601f19601f82011682018060405250810190611ede91906127bb565b60015b611f64573d8060008114611f11576040519150601f19603f3d011682016040523d82523d6000602084013e611f16565b606091505b50600081511415611f5c576040517f08c379a0000000000000000000000000000000000000000000000000000000008152600401611f5390612dfc565b60405180910390fd5b805181602001fd5b63150b7a0260e01b7bffffffffffffffffffffffffffffffffffffffffffffffffffffffff1916817bffffffffffffffffffffffffffffffffffffffffffffffffffffffff191614915050611fb9565b600190505b949350505050565b60606000821415612009576040518060400160405280600181526020017f3000000000000000000000000000000000000000000000000000000000000000815250905061211d565b600082905060005b6000821461203b57808061202490613332565b915050600a826120349190613153565b9150612011565b60008167ffffffffffffffff81111561205757612056613497565b5b6040519080825280601f01601f1916602001820160405280156120895781602001600182028036833780820191505090505b5090505b60008514612116576001826120a29190613184565b9150600a856120b1919061337b565b60306120bd91906130fd565b60f81b8183815181106120d3576120d2613468565b5b60200101907effffffffffffffffffffffffffffffffffffffffffffffffffffffffffffff1916908160001a905350600a8561210f9190613153565b945061208d565b8093505050505b919050565b61212c83836121a0565b6121396000848484611e2a565b612178576040517f08c379a000000000000000000000000000000000000000000000000000000000815260040161216f90612dfc565b60405180910390fd5b505050565b6000808273ffffffffffffffffffffffffffffffffffffffff163b119050919050565b600073ffffffffffffffffffffffffffffffffffffffff168273ffffffffffffffffffffffffffffffffffffffff161415612210576040517f08c379a000000000000000000000000000000000000000000000000000000000815260040161220790612f1c565b60405180910390fd5b61221981611d22565b15612259576040517f08c379a000000000000000000000000000000000000000000000000000000000815260040161225090612e5c565b60405180910390fd5b61226560008383611e20565b6001600360008473ffffffffffffffffffffffffffffffffffffffff1673ffffffffffffffffffffffffffffffffffffffff16815260200190815260200160002060008282546122b591906130fd565b92505081905550816002600083815260200190815260200160002060006101000a81548173ffffffffffffffffffffffffffffffffffffffff021916908373ffffffffffffffffffffffffffffffffffffffff160217905550808273ffffffffffffffffffffffffffffffffffffffff16600073ffffffffffffffffffffffffffffffffffffffff167fddf252ad1be2c89b69c2b068fc378daa952ba7f163c4a11628f55a4df523b3ef60405160405180910390a461237660008383611e25565b5050565b6040518060600160405280600390602082028036833780820191505090505090565b8280546123a8906132cf565b90600052602060002090601f0160209004810192826123ca5760008555612411565b82601f106123e357805160ff1916838001178555612411565b82800160010185558215612411579182015b828111156124105782518255916020019190600101906123f5565b5b50905061241e9190612422565b5090565b5b8082111561243b576000816000905550600101612423565b5090565b600061245261244d84613025565b613000565b90508083825260208201905082856020860282011115612475576124746134cb565b5b60005b858110156124a5578161248b88826125a1565b845260208401935060208301925050600181019050612478565b5050509392505050565b60006124c26124bd84613051565b613000565b9050828152602081018484840111156124de576124dd6134d0565b5b6124e984828561328d565b509392505050565b6000813590506125008161389b565b92915050565b600082601f83011261251b5761251a6134c6565b5b813561252b84826020860161243f565b91505092915050565b600081359050612543816138b2565b92915050565b600081359050612558816138c9565b92915050565b60008151905061256d816138c9565b92915050565b600082601f830112612588576125876134c6565b5b81356125988482602086016124af565b91505092915050565b6000813590506125b0816138e0565b92915050565b6000815190506125c5816138e0565b92915050565b6000602082840312156125e1576125e06134da565b5b60006125ef848285016124f1565b91505092915050565b6000806040838503121561260f5761260e6134da565b5b600061261d858286016124f1565b925050602061262e858286016124f1565b9150509250929050565b600080600060608486031215612651576126506134da565b5b600061265f868287016124f1565b9350506020612670868287016124f1565b9250506040612681868287016125a1565b9150509250925092565b600080600080608085870312156126a5576126a46134da565b5b60006126b3878288016124f1565b94505060206126c4878288016124f1565b93505060406126d5878288016125a1565b925050606085013567ffffffffffffffff8111156126f6576126f56134d5565b5b61270287828801612573565b91505092959194509250565b60008060408385031215612725576127246134da565b5b6000612733858286016124f1565b925050602061274485828601612534565b9150509250929050565b60008060408385031215612765576127646134da565b5b6000612773858286016124f1565b9250506020612784858286016125a1565b9150509250929050565b6000602082840312156127a4576127a36134da565b5b60006127b284828501612549565b91505092915050565b6000602082840312156127d1576127d06134da565b5b60006127df8482850161255e565b91505092915050565b6000602082840312156127fe576127fd6134da565b5b600061280c848285016125a1565b91505092915050565b60006020828403121561282b5761282a6134da565b5b6000612839848285016125b6565b91505092915050565b60008060408385031215612859576128586134da565b5b6000612867858286016125a1565b925050602083013567ffffffffffffffff811115612888576128876134d5565b5b61289485828601612506565b9150509250929050565b60006128aa8383612c08565b60208301905092915050565b6128bf816131b8565b82525050565b6128ce8161308c565b6128d881846130ba565b92506128e382613082565b8060005b838110156129145781516128fb878261289e565b9650612906836130ad565b9250506001810190506128e7565b505050505050565b612925816131ca565b82525050565b612934816131d6565b82525050565b600061294582613097565b61294f81856130c5565b935061295f81856020860161329c565b612968816134df565b840191505092915050565b61297c8161327b565b82525050565b600061298d826130a2565b61299781856130e1565b93506129a781856020860161329c565b6129b0816134df565b840191505092915050565b60006129c6826130a2565b6129d081856130f2565b93506129e081856020860161329c565b80840191505092915050565b60006129f96032836130e1565b9150612a04826134f0565b604082019050919050565b6000612a1c6026836130e1565b9150612a278261353f565b604082019050919050565b6000612a3f6025836130e1565b9150612a4a8261358e565b604082019050919050565b6000612a62601c836130e1565b9150612a6d826135dd565b602082019050919050565b6000612a856024836130e1565b9150612a9082613606565b604082019050919050565b6000612aa86019836130e1565b9150612ab382613655565b602082019050919050565b6000612acb6029836130e1565b9150612ad68261367e565b604082019050919050565b6000612aee602e836130e1565b9150612af9826136cd565b604082019050919050565b6000612b11603e836130e1565b9150612b1c8261371c565b604082019050919050565b6000612b346020836130e1565b9150612b3f8261376b565b602082019050919050565b6000612b576020836130e1565b9150612b6282613794565b602082019050919050565b6000612b7a6018836130e1565b9150612b85826137bd565b602082019050919050565b6000612b9d6021836130e1565b9150612ba8826137e6565b604082019050919050565b6000612bc06000836130d6565b9150612bcb82613835565b600082019050919050565b6000612be3602e836130e1565b9150612bee82613838565b604082019050919050565b612c028161321f565b82525050565b612c118161324d565b82525050565b612c208161324d565b82525050565b612c2f81613257565b82525050565b612c3e81613267565b82525050565b6000612c5082856129bb565b9150612c5c82846129bb565b91508190509392505050565b6000612c7382612bb3565b9150819050919050565b6000602082019050612c9260008301846128b6565b92915050565b6000604082019050612cad60008301856128b6565b612cba60208301846128b6565b9392505050565b6000608082019050612cd660008301876128b6565b612ce360208301866128b6565b612cf06040830185612c17565b8181036060830152612d02818461293a565b905095945050505050565b6000606082019050612d2260008301846128c5565b92915050565b6000602082019050612d3d600083018461291c565b92915050565b600060a082019050612d58600083018861292b565b612d656020830187612c35565b612d726040830186612bf9565b612d7f6060830185612c26565b612d8c6080830184612c26565b9695505050505050565b6000602082019050612dab6000830184612973565b92915050565b6000604082019050612dc66000830185612973565b612dd360208301846128b6565b9392505050565b60006020820190508181036000830152612df48184612982565b905092915050565b60006020820190508181036000830152612e15816129ec565b9050919050565b60006020820190508181036000830152612e3581612a0f565b9050919050565b60006020820190508181036000830152612e5581612a32565b9050919050565b60006020820190508181036000830152612e7581612a55565b9050919050565b60006020820190508181036000830152612e9581612a78565b9050919050565b60006020820190508181036000830152612eb581612a9b565b9050919050565b60006020820190508181036000830152612ed581612abe565b9050919050565b60006020820190508181036000830152612ef581612ae1565b9050919050565b60006020820190508181036000830152612f1581612b04565b9050919050565b60006020820190508181036000830152612f3581612b27565b9050919050565b60006020820190508181036000830152612f5581612b4a565b9050919050565b60006020820190508181036000830152612f7581612b6d565b9050919050565b60006020820190508181036000830152612f9581612b90565b9050919050565b60006020820190508181036000830152612fb581612bd6565b9050919050565b6000602082019050612fd16000830184612c17565b92915050565b6000604082019050612fec6000830185612c17565b612ff960208301846128b6565b9392505050565b600061300a61301b565b90506130168282613301565b919050565b6000604051905090565b600067ffffffffffffffff8211156130405761303f613497565b5b602082029050602081019050919050565b600067ffffffffffffffff82111561306c5761306b613497565b5b613075826134df565b9050602081019050919050565b6000819050919050565b600060039050919050565b600081519050919050565b600081519050919050565b6000602082019050919050565b600081905092915050565b600082825260208201905092915050565b600081905092915050565b600082825260208201905092915050565b600081905092915050565b60006131088261324d565b91506131138361324d565b9250827fffffffffffffffffffffffffffffffffffffffffffffffffffffffffffffffff03821115613148576131476133ac565b5b828201905092915050565b600061315e8261324d565b91506131698361324d565b925082613179576131786133db565b5b828204905092915050565b600061318f8261324d565b915061319a8361324d565b9250828210156131ad576131ac6133ac565b5b828203905092915050565b60006131c38261322d565b9050919050565b60008115159050919050565b6000819050919050565b60007fffffffff0000000000000000000000000000000000000000000000000000000082169050919050565b600081905061321a82613887565b919050565b600061ffff82169050919050565b600073ffffffffffffffffffffffffffffffffffffffff82169050919050565b6000819050919050565b600063ffffffff82169050919050565b600067ffffffffffffffff82169050919050565b60006132868261320c565b9050919050565b82818337600083830152505050565b60005b838110156132ba57808201518184015260208101905061329f565b838111156132c9576000848401525b50505050565b600060028204905060018216806132e757607f821691505b602082108114156132fb576132fa613439565b5b50919050565b61330a826134df565b810181811067ffffffffffffffff8211171561332957613328613497565b5b80604052505050565b600061333d8261324d565b91507fffffffffffffffffffffffffffffffffffffffffffffffffffffffffffffffff8214156133705761336f6133ac565b5b600182019050919050565b60006133868261324d565b91506133918361324d565b9250826133a1576133a06133db565b5b828206905092915050565b7f4e487b7100000000000000000000000000000000000000000000000000000000600052601160045260246000fd5b7f4e487b7100000000000000000000000000000000000000000000000000000000600052601260045260246000fd5b7f4e487b7100000000000000000000000000000000000000000000000000000000600052602160045260246000fd5b7f4e487b7100000000000000000000000000000000000000000000000000000000600052602260045260246000fd5b7f4e487b7100000000000000000000000000000000000000000000000000000000600052603260045260246000fd5b7f4e487b7100000000000000000000000000000000000000000000000000000000600052604160045260246000fd5b600080fd5b600080fd5b600080fd5b600080fd5b600080fd5b6000601f19601f8301169050919050565b7f4552433732313a207472616e7366657220746f206e6f6e20455243373231526560008201527f63656976657220696d706c656d656e7465720000000000000000000000000000602082015250565b7f4f776e61626c653a206e6577206f776e657220697320746865207a65726f206160008201527f6464726573730000000000000000000000000000000000000000000000000000602082015250565b7f4552433732313a207472616e736665722066726f6d20696e636f72726563742060008201527f6f776e6572000000000000000000000000000000000000000000000000000000602082015250565b7f4552433732313a20746f6b656e20616c7265616479206d696e74656400000000600082015250565b7f4552433732313a207472616e7366657220746f20746865207a65726f2061646460008201527f7265737300000000000000000000000000000000000000000000000000000000602082015250565b7f4552433732313a20617070726f766520746f2063616c6c657200000000000000600082015250565b7f4552433732313a2061646472657373207a65726f206973206e6f74206120766160008201527f6c6964206f776e65720000000000000000000000000000000000000000000000602082015250565b7f45524337323155524953746f726167653a2055524920736574206f66206e6f6e60008201527f6578697374656e7420746f6b656e000000000000000000000000000000000000602082015250565b7f4552433732313a20617070726f76652063616c6c6572206973206e6f7420746f60008201527f6b656e206f776e6572206e6f7220617070726f76656420666f7220616c6c0000602082015250565b7f4552433732313a206d696e7420746f20746865207a65726f2061646472657373600082015250565b7f4f776e61626c653a2063616c6c6572206973206e6f7420746865206f776e6572600082015250565b7f4552433732313a20696e76616c696420746f6b656e2049440000000000000000600082015250565b7f4552433732313a20617070726f76616c20746f2063757272656e74206f776e6560008201527f7200000000000000000000000000000000000000000000000000000000000000602082015250565b50565b7f4552433732313a2063616c6c6572206973206e6f7420746f6b656e206f776e6560008201527f72206e6f7220617070726f766564000000000000000000000000000000000000602082015250565b600381106138985761389761340a565b5b50565b6138a4816131b8565b81146138af57600080fd5b50565b6138bb816131ca565b81146138c657600080fd5b50565b6138d2816131e0565b81146138dd57600080fd5b50565b6138e98161324d565b81146138f457600080fd5b5056fea264697066735822122073e20b0c76a64b92a2c93e18ccdfee6c62bc3f30163138f734f943cfe2893a2564736f6c63430008070033",
  "linkReferences": {},
  "deployedLinkReferences": {}
}