{
  "_format": "hh-sol-artifact-1",
  "contractName": "RandomIpfsNft",
  "sourceName": "contracts/RandomIPFSNft.sol",
  "abi": [
    {
      "inputs": [
        {
          "internalType": "address",
          "name": "vrfCoordinatorV2",
          "type": "address"
        },
        {
          "internalType": "uint256",
          "name": "entranceFee",
          "type": "uint256"
        },
        {
          "internalType": "bytes32",
          "name": "gasLane",
          "type": "bytes32"
        },
        {
          "internalType": "uint64",
          "name": "subscriptionId",
          "type": "uint64"
        },
        {
          "internalType": "uint32",
          "name": "callbackGasLimit",
          "type": "uint32"
        },
        {
          "internalType": "uint256",
          "name": "interval",
          "type": "uint256"
        },
        {
          "internalType": "uint256",
          "name": "mintFee",
          "type": "uint256"
        },
        {
          "internalType": "string[3]",
          "name": "tokenUris",
          "type": "string[3]"
        }
      ],
      "stateMutability": "nonpayable",
      "type": "constructor"
    },
    {
      "inputs": [
        {
          "internalType": "address",
          "name": "have",
          "type": "address"
        },
        {
          "internalType": "address",
          "name": "want",
          "type": "address"
        }
      ],
      "name": "OnlyCoordinatorCanFulfill",
      "type": "error"
    },
    {
      "inputs": [],
      "name": "RandomIpfsNft__NotEnoughEthPaid",
      "type": "error"
    },
    {
      "inputs": [],
      "name": "RandomIpfsNft__RangeOutOfBound",
      "type": "error"
    },
    {
      "inputs": [],
      "name": "RandomIpfsNft__TransferFailed",
      "type": "error"
    },
    {
      "anonymous": false,
      "inputs": [
        {
          "indexed": true,
          "internalType": "address",
          "name": "owner",
          "type": "address"
        },
        {
          "indexed": true,
          "internalType": "address",
          "name": "approved",
          "type": "address"
        },
        {
          "indexed": true,
          "internalType": "uint256",
          "name": "tokenId",
          "type": "uint256"
        }
      ],
      "name": "Approval",
      "type": "event"
    },
    {
      "anonymous": false,
      "inputs": [
        {
          "indexed": true,
          "internalType": "address",
          "name": "owner",
          "type": "address"
        },
        {
          "indexed": true,
          "internalType": "address",
          "name": "operator",
          "type": "address"
        },
        {
          "indexed": false,
          "internalType": "bool",
          "name": "approved",
          "type": "bool"
        }
      ],
      "name": "ApprovalForAll",
      "type": "event"
    },
    {
      "anonymous": false,
      "inputs": [
        {
          "indexed": false,
          "internalType": "enum RandomIpfsNft.Breed",
          "name": "dogBreed",
          "type": "uint8"
        },
        {
          "indexed": false,
          "internalType": "address",
          "name": "minter",
          "type": "address"
        }
      ],
      "name": "NftMinted",
      "type": "event"
    },
    {
      "anonymous": false,
      "inputs": [
        {
          "indexed": false,
          "internalType": "uint256",
          "name": "requestId",
          "type": "uint256"
        },
        {
          "indexed": false,
          "internalType": "address",
          "name": "requester",
          "type": "address"
        }
      ],
      "name": "NftRequested",
      "type": "event"
    },
    {
      "anonymous": false,
      "inputs": [
        {
          "indexed": true,
          "internalType": "address",
          "name": "previousOwner",
          "type": "address"
        },
        {
          "indexed": true,
          "internalType": "address",
          "name": "newOwner",
          "type": "address"
        }
      ],
      "name": "OwnershipTransferred",
      "type": "event"
    },
    {
      "anonymous": false,
      "inputs": [
        {
          "indexed": true,
          "internalType": "address",
          "name": "from",
          "type": "address"
        },
        {
          "indexed": true,
          "internalType": "address",
          "name": "to",
          "type": "address"
        },
        {
          "indexed": true,
          "internalType": "uint256",
          "name": "tokenId",
          "type": "uint256"
        }
      ],
      "name": "Transfer",
      "type": "event"
    },
    {
      "inputs": [
        {
          "internalType": "address",
          "name": "to",
          "type": "address"
        },
        {
          "internalType": "uint256",
          "name": "tokenId",
          "type": "uint256"
        }
      ],
      "name": "approve",
      "outputs": [],
      "stateMutability": "nonpayable",
      "type": "function"
    },
    {
      "inputs": [
        {
          "internalType": "address",
          "name": "owner",
          "type": "address"
        }
      ],
      "name": "balanceOf",
      "outputs": [
        {
          "internalType": "uint256",
          "name": "",
          "type": "uint256"
        }
      ],
      "stateMutability": "view",
      "type": "function"
    },
    {
      "inputs": [
        {
          "internalType": "uint256",
          "name": "tokenId",
          "type": "uint256"
        }
      ],
      "name": "getApproved",
      "outputs": [
        {
          "internalType": "address",
          "name": "",
          "type": "address"
        }
      ],
      "stateMutability": "view",
      "type": "function"
    },
    {
      "inputs": [
        {
          "internalType": "uint256",
          "name": "moddedRng",
          "type": "uint256"
        }
      ],
      "name": "getBreedFromModdedRng",
      "outputs": [
        {
          "internalType": "enum RandomIpfsNft.Breed",
          "name": "",
          "type": "uint8"
        }
      ],
      "stateMutability": "pure",
      "type": "function"
    },
    {
      "inputs": [],
      "name": "getChanceArray",
      "outputs": [
        {
          "internalType": "uint256[3]",
          "name": "",
          "type": "uint256[3]"
        }
      ],
      "stateMutability": "pure",
      "type": "function"
    },
    {
      "inputs": [
        {
          "internalType": "uint256",
          "name": "index",
          "type": "uint256"
        }
      ],
      "name": "getDogTokenUris",
      "outputs": [
        {
          "internalType": "string",
          "name": "",
          "type": "string"
        }
      ],
      "stateMutability": "view",
      "type": "function"
    },
    {
      "inputs": [],
      "name": "getMintFee",
      "outputs": [
        {
          "internalType": "uint256",
          "name": "",
          "type": "uint256"
        }
      ],
      "stateMutability": "view",
      "type": "function"
    },
    {
      "inputs": [],
      "name": "getTokenCounter",
      "outputs": [
        {
          "internalType": "uint256",
          "name": "",
          "type": "uint256"
        }
      ],
      "stateMutability": "view",
      "type": "function"
    },
    {
      "inputs": [
        {
          "internalType": "address",
          "name": "owner",
          "type": "address"
        },
        {
          "internalType": "address",
          "name": "operator",
          "type": "address"
        }
      ],
      "name": "isApprovedForAll",
      "outputs": [
        {
          "internalType": "bool",
          "name": "",
          "type": "bool"
        }
      ],
      "stateMutability": "view",
      "type": "function"
    },
    {
      "inputs": [],
      "name": "name",
      "outputs": [
        {
          "internalType": "string",
          "name": "",
          "type": "string"
        }
      ],
      "stateMutability": "view",
      "type": "function"
    },
    {
      "inputs": [],
      "name": "owner",
      "outputs": [
        {
          "internalType": "address",
          "name": "",
          "type": "address"
        }
      ],
      "stateMutability": "view",
      "type": "function"
    },
    {
      "inputs": [
        {
          "internalType": "uint256",
          "name": "tokenId",
          "type": "uint256"
        }
      ],
      "name": "ownerOf",
      "outputs": [
        {
          "internalType": "address",
          "name": "",
          "type": "address"
        }
      ],
      "stateMutability": "view",
      "type": "function"
    },
    {
      "inputs": [
        {
          "internalType": "uint256",
          "name": "requestId",
          "type": "uint256"
        },
        {
          "internalType": "uint256[]",
          "name": "randomWords",
          "type": "uint256[]"
        }
      ],
      "name": "rawFulfillRandomWords",
      "outputs": [],
      "stateMutability": "nonpayable",
      "type": "function"
    },
    {
      "inputs": [],
      "name": "renounceOwnership",
      "outputs": [],
      "stateMutability": "nonpayable",
      "type": "function"
    },
    {
      "inputs": [],
      "name": "requestNft",
      "outputs": [
        {
          "internalType": "uint256",
          "name": "requestId",
          "type": "uint256"
        }
      ],
      "stateMutability": "payable",
      "type": "function"
    },
    {
      "inputs": [],
      "name": "s_tokenCounter",
      "outputs": [
        {
          "internalType": "uint256",
          "name": "",
          "type": "uint256"
        }
      ],
      "stateMutability": "view",
      "type": "function"
    },
    {
      "inputs": [
        {
          "internalType": "address",
          "name": "from",
          "type": "address"
        },
        {
          "internalType": "address",
          "name": "to",
          "type": "address"
        },
        {
          "internalType": "uint256",
          "name": "tokenId",
          "type": "uint256"
        }
      ],
      "name": "safeTransferFrom",
      "outputs": [],
      "stateMutability": "nonpayable",
      "type": "function"
    },
    {
      "inputs": [
        {
          "internalType": "address",
          "name": "from",
          "type": "address"
        },
        {
          "internalType": "address",
          "name": "to",
          "type": "address"
        },
        {
          "internalType": "uint256",
          "name": "tokenId",
          "type": "uint256"
        },
        {
          "internalType": "bytes",
          "name": "data",
          "type": "bytes"
        }
      ],
      "name": "safeTransferFrom",
      "outputs": [],
      "stateMutability": "nonpayable",
      "type": "function"
    },
    {
      "inputs": [
        {
          "internalType": "address",
          "name": "operator",
          "type": "address"
        },
        {
          "internalType": "bool",
          "name": "approved",
          "type": "bool"
        }
      ],
      "name": "setApprovalForAll",
      "outputs": [],
      "stateMutability": "nonpayable",
      "type": "function"
    },
    {
      "inputs": [
        {
          "internalType": "bytes4",
          "name": "interfaceId",
          "type": "bytes4"
        }
      ],
      "name": "supportsInterface",
      "outputs": [
        {
          "internalType": "bool",
          "name": "",
          "type": "bool"
        }
      ],
      "stateMutability": "view",
      "type": "function"
    },
    {
      "inputs": [],
      "name": "symbol",
      "outputs": [
        {
          "internalType": "string",
          "name": "",
          "type": "string"
        }
      ],
      "stateMutability": "view",
      "type": "function"
    },
    {
      "inputs": [
        {
          "internalType": "uint256",
          "name": "tokenId",
          "type": "uint256"
        }
      ],
      "name": "tokenURI",
      "outputs": [
        {
          "internalType": "string",
          "name": "",
          "type": "string"
        }
      ],
      "stateMutability": "view",
      "type": "function"
    },
    {
      "inputs": [
        {
          "internalType": "address",
          "name": "from",
          "type": "address"
        },
        {
          "internalType": "address",
          "name": "to",
          "type": "address"
        },
        {
          "internalType": "uint256",
          "name": "tokenId",
          "type": "uint256"
        }
      ],
      "name": "transferFrom",
      "outputs": [],
      "stateMutability": "nonpayable",
      "type": "function"
    },
    {
      "inputs": [
        {
          "internalType": "address",
          "name": "newOwner",
          "type": "address"
        }
      ],
      "name": "transferOwnership",
      "outputs": [],
      "stateMutability": "nonpayable",
      "type": "function"
    },
    {
      "inputs": [],
      "name": "withdraw",
      "outputs": [],
      "stateMutability": "nonpayable",
      "type": "function"
    }
  ],
  "bytecode": "0x6101406040523480156200001257600080fd5b50604051620042dd380380620042dd8339818101604052810190620000389190620005d9565b6040518060400160405280600681526020017f446f674e667400000000000000000000000000000000000000000000000000008152506040518060400160405280600381526020017f444f470000000000000000000000000000000000000000000000000000000000815250898073ffffffffffffffffffffffffffffffffffffffff1660808173ffffffffffffffffffffffffffffffffffffffff1660601b81525050508160009080519060200190620000f5929190620002a0565b5080600190805190602001906200010e929190620002a0565b5050506200013162000125620001d260201b60201c565b620001da60201b60201c565b8161012081815250508773ffffffffffffffffffffffffffffffffffffffff1660a08173ffffffffffffffffffffffffffffffffffffffff1660601b815250508560c081815250508060089060036200018c92919062000331565b508467ffffffffffffffff1660e08167ffffffffffffffff1660c01b815250508363ffffffff166101008163ffffffff1660e01b81525050505050505050505062000961565b600033905090565b6000600760009054906101000a900473ffffffffffffffffffffffffffffffffffffffff16905081600760006101000a81548173ffffffffffffffffffffffffffffffffffffffff021916908373ffffffffffffffffffffffffffffffffffffffff1602179055508173ffffffffffffffffffffffffffffffffffffffff168173ffffffffffffffffffffffffffffffffffffffff167f8be0079c531659141344cd1fd0a4f28419497f9722a3daafe3b4186f6b6457e060405160405180910390a35050565b828054620002ae90620007eb565b90600052602060002090601f016020900481019282620002d257600085556200031e565b82601f10620002ed57805160ff19168380011785556200031e565b828001600101855582156200031e579182015b828111156200031d57825182559160200191906001019062000300565b5b5090506200032d919062000398565b5090565b82805482825590600052602060002090810192821562000385579160200282015b828111156200038457825182908051906020019062000373929190620002a0565b509160200191906001019062000352565b5b509050620003949190620003b7565b5090565b5b80821115620003b357600081600090555060010162000399565b5090565b5b80821115620003db5760008181620003d19190620003df565b50600101620003b8565b5090565b508054620003ed90620007eb565b6000825580601f1062000401575062000422565b601f01602090049060005260206000209081019062000421919062000398565b5b50565b60006200043c6200043684620006ea565b620006c1565b90508082856020860282011115620004595762000458620008ba565b5b60005b85811015620004ae57815167ffffffffffffffff811115620004835762000482620008b5565b5b80860162000492898262000561565b855260208501945060208401935050506001810190506200045c565b5050509392505050565b6000620004cf620004c98462000713565b620006c1565b905082815260208101848484011115620004ee57620004ed620008bf565b5b620004fb848285620007b5565b509392505050565b6000815190506200051481620008df565b92915050565b600082601f830112620005325762000531620008b5565b5b60036200054184828562000425565b91505092915050565b6000815190506200055b81620008f9565b92915050565b600082601f830112620005795762000578620008b5565b5b81516200058b848260208601620004b8565b91505092915050565b600081519050620005a58162000913565b92915050565b600081519050620005bc816200092d565b92915050565b600081519050620005d38162000947565b92915050565b600080600080600080600080610100898b031215620005fd57620005fc620008c9565b5b60006200060d8b828c0162000503565b9850506020620006208b828c0162000594565b9750506040620006338b828c016200054a565b9650506060620006468b828c01620005c2565b9550506080620006598b828c01620005ab565b94505060a06200066c8b828c0162000594565b93505060c06200067f8b828c0162000594565b92505060e089015167ffffffffffffffff811115620006a357620006a2620008c4565b5b620006b18b828c016200051a565b9150509295985092959890939650565b6000620006cd620006e0565b9050620006db828262000821565b919050565b6000604051905090565b600067ffffffffffffffff82111562000708576200070762000886565b5b602082029050919050565b600067ffffffffffffffff82111562000731576200073062000886565b5b6200073c82620008ce565b9050602081019050919050565b6000620007568262000767565b9050919050565b6000819050919050565b600073ffffffffffffffffffffffffffffffffffffffff82169050919050565b6000819050919050565b600063ffffffff82169050919050565b600067ffffffffffffffff82169050919050565b60005b83811015620007d5578082015181840152602081019050620007b8565b83811115620007e5576000848401525b50505050565b600060028204905060018216806200080457607f821691505b602082108114156200081b576200081a62000857565b5b50919050565b6200082c82620008ce565b810181811067ffffffffffffffff821117156200084e576200084d62000886565b5b80604052505050565b7f4e487b7100000000000000000000000000000000000000000000000000000000600052602260045260246000fd5b7f4e487b7100000000000000000000000000000000000000000000000000000000600052604160045260246000fd5b600080fd5b600080fd5b600080fd5b600080fd5b600080fd5b6000601f19601f8301169050919050565b620008ea8162000749565b8114620008f657600080fd5b50565b62000904816200075d565b81146200091057600080fd5b50565b6200091e8162000787565b81146200092a57600080fd5b50565b620009388162000791565b81146200094457600080fd5b50565b6200095281620007a1565b81146200095e57600080fd5b50565b60805160601c60a05160601c60c05160e05160c01c6101005160e01c61012051613912620009cb60003960008181610d1e0152610efa01526000610fd401526000610fb101526000610f9001526000610f540152600081816108c5015261091901526139126000f3fe6080604052600436106101665760003560e01c80636e02007d116100d1578063a22cb4651161008a578063b88d4fde11610064578063b88d4fde1461051f578063c87b56dd14610548578063e985e9c514610585578063f2fde38b146105c257610166565b8063a22cb4651461049b578063a51cccf3146104c4578063aa1524911461050157610166565b80636e02007d1461039b57806370a08231146103c6578063715018a6146104035780637a5caab31461041a5780638da5cb5b1461044557806395d89b411461047057610166565b806323b872dd1161012357806323b872dd1461028d5780633af25975146102b65780633ccfd60b146102f357806342842e0e1461030a5780635dacf5f4146103335780636352211e1461035e57610166565b806301ffc9a71461016b57806306fdde03146101a8578063081812fc146101d3578063095ea7b3146102105780630b21a83b146102395780631fe543e314610264575b600080fd5b34801561017757600080fd5b50610192600480360381019061018d9190612773565b6105eb565b60405161019f9190612d0d565b60405180910390f35b3480156101b457600080fd5b506101bd6106cd565b6040516101ca9190612dbf565b60405180910390f35b3480156101df57600080fd5b506101fa60048036038101906101f591906127cd565b61075f565b6040516102079190612c62565b60405180910390f35b34801561021c57600080fd5b5061023760048036038101906102329190612733565b6107a5565b005b34801561024557600080fd5b5061024e6108bd565b60405161025b9190612fa1565b60405180910390f35b34801561027057600080fd5b5061028b60048036038101906102869190612827565b6108c3565b005b34801561029957600080fd5b506102b460048036038101906102af919061261d565b610983565b005b3480156102c257600080fd5b506102dd60048036038101906102d891906127cd565b6109e3565b6040516102ea9190612dbf565b60405180910390f35b3480156102ff57600080fd5b50610308610a93565b005b34801561031657600080fd5b50610331600480360381019061032c919061261d565b610b47565b005b34801561033f57600080fd5b50610348610b67565b6040516103559190612cf2565b60405180910390f35b34801561036a57600080fd5b50610385600480360381019061038091906127cd565b610b92565b6040516103929190612c62565b60405180910390f35b3480156103a757600080fd5b506103b0610c44565b6040516103bd9190612fa1565b60405180910390f35b3480156103d257600080fd5b506103ed60048036038101906103e891906125b0565b610c4e565b6040516103fa9190612fa1565b60405180910390f35b34801561040f57600080fd5b50610418610d06565b005b34801561042657600080fd5b5061042f610d1a565b60405161043c9190612fa1565b60405180910390f35b34801561045157600080fd5b5061045a610d42565b6040516104679190612c62565b60405180910390f35b34801561047c57600080fd5b50610485610d6c565b6040516104929190612dbf565b60405180910390f35b3480156104a757600080fd5b506104c260048036038101906104bd91906126f3565b610dfe565b005b3480156104d057600080fd5b506104eb60048036038101906104e691906127cd565b610e14565b6040516104f89190612d7b565b60405180910390f35b610509610ef6565b6040516105169190612fa1565b60405180910390f35b34801561052b57600080fd5b5061054660048036038101906105419190612670565b6110f7565b005b34801561055457600080fd5b5061056f600480360381019061056a91906127cd565b611159565b60405161057c9190612dbf565b60405180910390f35b34801561059157600080fd5b506105ac60048036038101906105a791906125dd565b61126c565b6040516105b99190612d0d565b60405180910390f35b3480156105ce57600080fd5b506105e960048036038101906105e491906125b0565b611300565b005b60007f80ac58cd000000000000000000000000000000000000000000000000000000007bffffffffffffffffffffffffffffffffffffffffffffffffffffffff1916827bffffffffffffffffffffffffffffffffffffffffffffffffffffffff191614806106b657507f5b5e139f000000000000000000000000000000000000000000000000000000007bffffffffffffffffffffffffffffffffffffffffffffffffffffffff1916827bffffffffffffffffffffffffffffffffffffffffffffffffffffffff1916145b806106c657506106c582611384565b5b9050919050565b6060600080546106dc906132b4565b80601f0160208091040260200160405190810160405280929190818152602001828054610708906132b4565b80156107555780601f1061072a57610100808354040283529160200191610755565b820191906000526020600020905b81548152906001019060200180831161073857829003601f168201915b5050505050905090565b600061076a826113ee565b6004600083815260200190815260200160002060009054906101000a900473ffffffffffffffffffffffffffffffffffffffff169050919050565b60006107b082610b92565b90508073ffffffffffffffffffffffffffffffffffffffff168373ffffffffffffffffffffffffffffffffffffffff161415610821576040517f08c379a000000000000000000000000000000000000000000000000000000000815260040161081890612f61565b60405180910390fd5b8073ffffffffffffffffffffffffffffffffffffffff16610840611439565b73ffffffffffffffffffffffffffffffffffffffff16148061086f575061086e81610869611439565b61126c565b5b6108ae576040517f08c379a00000000000000000000000000000000000000000000000000000000081526004016108a590612ee1565b60405180910390fd5b6108b88383611441565b505050565b600a5481565b7f000000000000000000000000000000000000000000000000000000000000000073ffffffffffffffffffffffffffffffffffffffff163373ffffffffffffffffffffffffffffffffffffffff161461097557337f00000000000000000000000000000000000000000000000000000000000000006040517f1cf993f400000000000000000000000000000000000000000000000000000000815260040161096c929190612c7d565b60405180910390fd5b61097f82826114fa565b5050565b61099461098e611439565b8261167f565b6109d3576040517f08c379a00000000000000000000000000000000000000000000000000000000081526004016109ca90612f81565b60405180910390fd5b6109de838383611714565b505050565b6060600882815481106109f9576109f861344d565b5b906000526020600020018054610a0e906132b4565b80601f0160208091040260200160405190810160405280929190818152602001828054610a3a906132b4565b8015610a875780601f10610a5c57610100808354040283529160200191610a87565b820191906000526020600020905b815481529060010190602001808311610a6a57829003601f168201915b50505050509050919050565b610a9b61197b565b600047905060003373ffffffffffffffffffffffffffffffffffffffff1682604051610ac690612c4d565b60006040518083038185875af1925050503d8060008114610b03576040519150601f19603f3d011682016040523d82523d6000602084013e610b08565b606091505b5050905080610b43576040517fca7e25b700000000000000000000000000000000000000000000000000000000815260040160405180910390fd5b5050565b610b62838383604051806020016040528060008152506110f7565b505050565b610b6f61235f565b6040518060600160405280600a8152602001601e81526020016064815250905090565b6000806002600084815260200190815260200160002060009054906101000a900473ffffffffffffffffffffffffffffffffffffffff169050600073ffffffffffffffffffffffffffffffffffffffff168173ffffffffffffffffffffffffffffffffffffffff161415610c3b576040517f08c379a0000000000000000000000000000000000000000000000000000000008152600401610c3290612f41565b60405180910390fd5b80915050919050565b6000600a54905090565b60008073ffffffffffffffffffffffffffffffffffffffff168273ffffffffffffffffffffffffffffffffffffffff161415610cbf576040517f08c379a0000000000000000000000000000000000000000000000000000000008152600401610cb690612ea1565b60405180910390fd5b600360008373ffffffffffffffffffffffffffffffffffffffff1673ffffffffffffffffffffffffffffffffffffffff168152602001908152602001600020549050919050565b610d0e61197b565b610d1860006119f9565b565b60007f0000000000000000000000000000000000000000000000000000000000000000905090565b6000600760009054906101000a900473ffffffffffffffffffffffffffffffffffffffff16905090565b606060018054610d7b906132b4565b80601f0160208091040260200160405190810160405280929190818152602001828054610da7906132b4565b8015610df45780601f10610dc957610100808354040283529160200191610df4565b820191906000526020600020905b815481529060010190602001808311610dd757829003601f168201915b5050505050905090565b610e10610e09611439565b8383611abf565b5050565b600080600090506000610e25610b67565b905060005b6003811015610ebe57828510158015610e645750818160038110610e5157610e5061344d565b5b602002015183610e6191906130e2565b85105b15610e8657806002811115610e7c57610e7b6133ef565b5b9350505050610ef1565b818160038110610e9957610e9861344d565b5b602002015183610ea991906130e2565b92508080610eb690613317565b915050610e2a565b506040517f3c4b8a8500000000000000000000000000000000000000000000000000000000815260040160405180910390fd5b919050565b60007f0000000000000000000000000000000000000000000000000000000000000000341015610f52576040517f5d10cca400000000000000000000000000000000000000000000000000000000815260040160405180910390fd5b7f000000000000000000000000000000000000000000000000000000000000000073ffffffffffffffffffffffffffffffffffffffff16635d3b1d307f00000000000000000000000000000000000000000000000000000000000000007f000000000000000000000000000000000000000000000000000000000000000060037f000000000000000000000000000000000000000000000000000000000000000060016040518663ffffffff1660e01b8152600401611015959493929190612d28565b602060405180830381600087803b15801561102f57600080fd5b505af1158015611043573d6000803e3d6000fd5b505050506040513d601f19601f8201168201806040525081019061106791906127fa565b9050336009600083815260200190815260200160002060006101000a81548173ffffffffffffffffffffffffffffffffffffffff021916908373ffffffffffffffffffffffffffffffffffffffff1602179055507ff873236e6cc0ecc5be1a9a35c95ee5b8d1ac4cc7bfef0cc5060391d6cc98e26b81336040516110ec929190612fbc565b60405180910390a190565b611108611102611439565b8361167f565b611147576040517f08c379a000000000000000000000000000000000000000000000000000000000815260040161113e90612f81565b60405180910390fd5b61115384848484611c2c565b50505050565b6060611164826113ee565b6000600660008481526020019081526020016000208054611184906132b4565b80601f01602080910402602001604051908101604052809291908181526020018280546111b0906132b4565b80156111fd5780601f106111d2576101008083540402835291602001916111fd565b820191906000526020600020905b8154815290600101906020018083116111e057829003601f168201915b50505050509050600061120e611c88565b9050600081511415611224578192505050611267565b600082511115611259578082604051602001611241929190612c29565b60405160208183030381529060405292505050611267565b61126284611c9f565b925050505b919050565b6000600560008473ffffffffffffffffffffffffffffffffffffffff1673ffffffffffffffffffffffffffffffffffffffff16815260200190815260200160002060008373ffffffffffffffffffffffffffffffffffffffff1673ffffffffffffffffffffffffffffffffffffffff16815260200190815260200160002060009054906101000a900460ff16905092915050565b61130861197b565b600073ffffffffffffffffffffffffffffffffffffffff168173ffffffffffffffffffffffffffffffffffffffff161415611378576040517f08c379a000000000000000000000000000000000000000000000000000000000815260040161136f90612e01565b60405180910390fd5b611381816119f9565b50565b60007f01ffc9a7000000000000000000000000000000000000000000000000000000007bffffffffffffffffffffffffffffffffffffffffffffffffffffffff1916827bffffffffffffffffffffffffffffffffffffffffffffffffffffffff1916149050919050565b6113f781611d07565b611436576040517f08c379a000000000000000000000000000000000000000000000000000000000815260040161142d90612f41565b60405180910390fd5b50565b600033905090565b816004600083815260200190815260200160002060006101000a81548173ffffffffffffffffffffffffffffffffffffffff021916908373ffffffffffffffffffffffffffffffffffffffff160217905550808273ffffffffffffffffffffffffffffffffffffffff166114b483610b92565b73ffffffffffffffffffffffffffffffffffffffff167f8c5be1e5ebec7d5bd14f71427d1e84f3dd0314c0f7b2291e5b200ac8c7c3b92560405160405180910390a45050565b60006009600084815260200190815260200160002060009054906101000a900473ffffffffffffffffffffffffffffffffffffffff1690506000600a54905060006064846000815181106115515761155061344d565b5b60200260200101516115639190613360565b9050600061157082610e14565b905061157c8484611d73565b61163e836008836002811115611595576115946133ef565b5b815481106115a6576115a561344d565b5b9060005260206000200180546115bb906132b4565b80601f01602080910402602001604051908101604052809291908181526020018280546115e7906132b4565b80156116345780601f1061160957610100808354040283529160200191611634565b820191906000526020600020905b81548152906001019060200180831161161757829003601f168201915b5050505050611d91565b7f8a269f26b688e110e9cbd887d163dab35cae678fa353a0292de532c0cac1ecdc818560405161166f929190612d96565b60405180910390a1505050505050565b60008061168b83610b92565b90508073ffffffffffffffffffffffffffffffffffffffff168473ffffffffffffffffffffffffffffffffffffffff1614806116cd57506116cc818561126c565b5b8061170b57508373ffffffffffffffffffffffffffffffffffffffff166116f38461075f565b73ffffffffffffffffffffffffffffffffffffffff16145b91505092915050565b8273ffffffffffffffffffffffffffffffffffffffff1661173482610b92565b73ffffffffffffffffffffffffffffffffffffffff161461178a576040517f08c379a000000000000000000000000000000000000000000000000000000000815260040161178190612e21565b60405180910390fd5b600073ffffffffffffffffffffffffffffffffffffffff168273ffffffffffffffffffffffffffffffffffffffff1614156117fa576040517f08c379a00000000000000000000000000000000000000000000000000000000081526004016117f190612e61565b60405180910390fd5b611805838383611e05565b611810600082611441565b6001600360008573ffffffffffffffffffffffffffffffffffffffff1673ffffffffffffffffffffffffffffffffffffffff16815260200190815260200160002060008282546118609190613169565b925050819055506001600360008473ffffffffffffffffffffffffffffffffffffffff1673ffffffffffffffffffffffffffffffffffffffff16815260200190815260200160002060008282546118b791906130e2565b92505081905550816002600083815260200190815260200160002060006101000a81548173ffffffffffffffffffffffffffffffffffffffff021916908373ffffffffffffffffffffffffffffffffffffffff160217905550808273ffffffffffffffffffffffffffffffffffffffff168473ffffffffffffffffffffffffffffffffffffffff167fddf252ad1be2c89b69c2b068fc378daa952ba7f163c4a11628f55a4df523b3ef60405160405180910390a4611976838383611e0a565b505050565b611983611439565b73ffffffffffffffffffffffffffffffffffffffff166119a1610d42565b73ffffffffffffffffffffffffffffffffffffffff16146119f7576040517f08c379a00000000000000000000000000000000000000000000000000000000081526004016119ee90612f21565b60405180910390fd5b565b6000600760009054906101000a900473ffffffffffffffffffffffffffffffffffffffff16905081600760006101000a81548173ffffffffffffffffffffffffffffffffffffffff021916908373ffffffffffffffffffffffffffffffffffffffff1602179055508173ffffffffffffffffffffffffffffffffffffffff168173ffffffffffffffffffffffffffffffffffffffff167f8be0079c531659141344cd1fd0a4f28419497f9722a3daafe3b4186f6b6457e060405160405180910390a35050565b8173ffffffffffffffffffffffffffffffffffffffff168373ffffffffffffffffffffffffffffffffffffffff161415611b2e576040517f08c379a0000000000000000000000000000000000000000000000000000000008152600401611b2590612e81565b60405180910390fd5b80600560008573ffffffffffffffffffffffffffffffffffffffff1673ffffffffffffffffffffffffffffffffffffffff16815260200190815260200160002060008473ffffffffffffffffffffffffffffffffffffffff1673ffffffffffffffffffffffffffffffffffffffff16815260200190815260200160002060006101000a81548160ff0219169083151502179055508173ffffffffffffffffffffffffffffffffffffffff168373ffffffffffffffffffffffffffffffffffffffff167f17307eab39ab6107e8899845ad3d59bd9653f200f220920489ca2b5937696c3183604051611c1f9190612d0d565b60405180910390a3505050565b611c37848484611714565b611c4384848484611e0f565b611c82576040517f08c379a0000000000000000000000000000000000000000000000000000000008152600401611c7990612de1565b60405180910390fd5b50505050565b606060405180602001604052806000815250905090565b6060611caa826113ee565b6000611cb4611c88565b90506000815111611cd45760405180602001604052806000815250611cff565b80611cde84611fa6565b604051602001611cef929190612c29565b6040516020818303038152906040525b915050919050565b60008073ffffffffffffffffffffffffffffffffffffffff166002600084815260200190815260200160002060009054906101000a900473ffffffffffffffffffffffffffffffffffffffff1673ffffffffffffffffffffffffffffffffffffffff1614159050919050565b611d8d828260405180602001604052806000815250612107565b5050565b611d9a82611d07565b611dd9576040517f08c379a0000000000000000000000000000000000000000000000000000000008152600401611dd090612ec1565b60405180910390fd5b80600660008481526020019081526020016000209080519060200190611e00929190612381565b505050565b505050565b505050565b6000611e308473ffffffffffffffffffffffffffffffffffffffff16612162565b15611f99578373ffffffffffffffffffffffffffffffffffffffff1663150b7a02611e59611439565b8786866040518563ffffffff1660e01b8152600401611e7b9493929190612ca6565b602060405180830381600087803b158015611e9557600080fd5b505af1925050508015611ec657506040513d601f19601f82011682018060405250810190611ec391906127a0565b60015b611f49573d8060008114611ef6576040519150601f19603f3d011682016040523d82523d6000602084013e611efb565b606091505b50600081511415611f41576040517f08c379a0000000000000000000000000000000000000000000000000000000008152600401611f3890612de1565b60405180910390fd5b805181602001fd5b63150b7a0260e01b7bffffffffffffffffffffffffffffffffffffffffffffffffffffffff1916817bffffffffffffffffffffffffffffffffffffffffffffffffffffffff191614915050611f9e565b600190505b949350505050565b60606000821415611fee576040518060400160405280600181526020017f30000000000000000000000000000000000000000000000000000000000000008152509050612102565b600082905060005b6000821461202057808061200990613317565b915050600a826120199190613138565b9150611ff6565b60008167ffffffffffffffff81111561203c5761203b61347c565b5b6040519080825280601f01601f19166020018201604052801561206e5781602001600182028036833780820191505090505b5090505b600085146120fb576001826120879190613169565b9150600a856120969190613360565b60306120a291906130e2565b60f81b8183815181106120b8576120b761344d565b5b60200101907effffffffffffffffffffffffffffffffffffffffffffffffffffffffffffff1916908160001a905350600a856120f49190613138565b9450612072565b8093505050505b919050565b6121118383612185565b61211e6000848484611e0f565b61215d576040517f08c379a000000000000000000000000000000000000000000000000000000000815260040161215490612de1565b60405180910390fd5b505050565b6000808273ffffffffffffffffffffffffffffffffffffffff163b119050919050565b600073ffffffffffffffffffffffffffffffffffffffff168273ffffffffffffffffffffffffffffffffffffffff1614156121f5576040517f08c379a00000000000000000000000000000000000000000000000000000000081526004016121ec90612f01565b60405180910390fd5b6121fe81611d07565b1561223e576040517f08c379a000000000000000000000000000000000000000000000000000000000815260040161223590612e41565b60405180910390fd5b61224a60008383611e05565b6001600360008473ffffffffffffffffffffffffffffffffffffffff1673ffffffffffffffffffffffffffffffffffffffff168152602001908152602001600020600082825461229a91906130e2565b92505081905550816002600083815260200190815260200160002060006101000a81548173ffffffffffffffffffffffffffffffffffffffff021916908373ffffffffffffffffffffffffffffffffffffffff160217905550808273ffffffffffffffffffffffffffffffffffffffff16600073ffffffffffffffffffffffffffffffffffffffff167fddf252ad1be2c89b69c2b068fc378daa952ba7f163c4a11628f55a4df523b3ef60405160405180910390a461235b60008383611e0a565b5050565b6040518060600160405280600390602082028036833780820191505090505090565b82805461238d906132b4565b90600052602060002090601f0160209004810192826123af57600085556123f6565b82601f106123c857805160ff19168380011785556123f6565b828001600101855582156123f6579182015b828111156123f55782518255916020019190600101906123da565b5b5090506124039190612407565b5090565b5b80821115612420576000816000905550600101612408565b5090565b60006124376124328461300a565b612fe5565b9050808382526020820190508285602086028201111561245a576124596134b0565b5b60005b8581101561248a57816124708882612586565b84526020840193506020830192505060018101905061245d565b5050509392505050565b60006124a76124a284613036565b612fe5565b9050828152602081018484840111156124c3576124c26134b5565b5b6124ce848285613272565b509392505050565b6000813590506124e581613880565b92915050565b600082601f830112612500576124ff6134ab565b5b8135612510848260208601612424565b91505092915050565b60008135905061252881613897565b92915050565b60008135905061253d816138ae565b92915050565b600081519050612552816138ae565b92915050565b600082601f83011261256d5761256c6134ab565b5b813561257d848260208601612494565b91505092915050565b600081359050612595816138c5565b92915050565b6000815190506125aa816138c5565b92915050565b6000602082840312156125c6576125c56134bf565b5b60006125d4848285016124d6565b91505092915050565b600080604083850312156125f4576125f36134bf565b5b6000612602858286016124d6565b9250506020612613858286016124d6565b9150509250929050565b600080600060608486031215612636576126356134bf565b5b6000612644868287016124d6565b9350506020612655868287016124d6565b925050604061266686828701612586565b9150509250925092565b6000806000806080858703121561268a576126896134bf565b5b6000612698878288016124d6565b94505060206126a9878288016124d6565b93505060406126ba87828801612586565b925050606085013567ffffffffffffffff8111156126db576126da6134ba565b5b6126e787828801612558565b91505092959194509250565b6000806040838503121561270a576127096134bf565b5b6000612718858286016124d6565b925050602061272985828601612519565b9150509250929050565b6000806040838503121561274a576127496134bf565b5b6000612758858286016124d6565b925050602061276985828601612586565b9150509250929050565b600060208284031215612789576127886134bf565b5b60006127978482850161252e565b91505092915050565b6000602082840312156127b6576127b56134bf565b5b60006127c484828501612543565b91505092915050565b6000602082840312156127e3576127e26134bf565b5b60006127f184828501612586565b91505092915050565b6000602082840312156128105761280f6134bf565b5b600061281e8482850161259b565b91505092915050565b6000806040838503121561283e5761283d6134bf565b5b600061284c85828601612586565b925050602083013567ffffffffffffffff81111561286d5761286c6134ba565b5b612879858286016124eb565b9150509250929050565b600061288f8383612bed565b60208301905092915050565b6128a48161319d565b82525050565b6128b381613071565b6128bd818461309f565b92506128c882613067565b8060005b838110156128f95781516128e08782612883565b96506128eb83613092565b9250506001810190506128cc565b505050505050565b61290a816131af565b82525050565b612919816131bb565b82525050565b600061292a8261307c565b61293481856130aa565b9350612944818560208601613281565b61294d816134c4565b840191505092915050565b61296181613260565b82525050565b600061297282613087565b61297c81856130c6565b935061298c818560208601613281565b612995816134c4565b840191505092915050565b60006129ab82613087565b6129b581856130d7565b93506129c5818560208601613281565b80840191505092915050565b60006129de6032836130c6565b91506129e9826134d5565b604082019050919050565b6000612a016026836130c6565b9150612a0c82613524565b604082019050919050565b6000612a246025836130c6565b9150612a2f82613573565b604082019050919050565b6000612a47601c836130c6565b9150612a52826135c2565b602082019050919050565b6000612a6a6024836130c6565b9150612a75826135eb565b604082019050919050565b6000612a8d6019836130c6565b9150612a988261363a565b602082019050919050565b6000612ab06029836130c6565b9150612abb82613663565b604082019050919050565b6000612ad3602e836130c6565b9150612ade826136b2565b604082019050919050565b6000612af6603e836130c6565b9150612b0182613701565b604082019050919050565b6000612b196020836130c6565b9150612b2482613750565b602082019050919050565b6000612b3c6020836130c6565b9150612b4782613779565b602082019050919050565b6000612b5f6018836130c6565b9150612b6a826137a2565b602082019050919050565b6000612b826021836130c6565b9150612b8d826137cb565b604082019050919050565b6000612ba56000836130bb565b9150612bb08261381a565b600082019050919050565b6000612bc8602e836130c6565b9150612bd38261381d565b604082019050919050565b612be781613204565b82525050565b612bf681613232565b82525050565b612c0581613232565b82525050565b612c148161323c565b82525050565b612c238161324c565b82525050565b6000612c3582856129a0565b9150612c4182846129a0565b91508190509392505050565b6000612c5882612b98565b9150819050919050565b6000602082019050612c77600083018461289b565b92915050565b6000604082019050612c92600083018561289b565b612c9f602083018461289b565b9392505050565b6000608082019050612cbb600083018761289b565b612cc8602083018661289b565b612cd56040830185612bfc565b8181036060830152612ce7818461291f565b905095945050505050565b6000606082019050612d0760008301846128aa565b92915050565b6000602082019050612d226000830184612901565b92915050565b600060a082019050612d3d6000830188612910565b612d4a6020830187612c1a565b612d576040830186612bde565b612d646060830185612c0b565b612d716080830184612c0b565b9695505050505050565b6000602082019050612d906000830184612958565b92915050565b6000604082019050612dab6000830185612958565b612db8602083018461289b565b9392505050565b60006020820190508181036000830152612dd98184612967565b905092915050565b60006020820190508181036000830152612dfa816129d1565b9050919050565b60006020820190508181036000830152612e1a816129f4565b9050919050565b60006020820190508181036000830152612e3a81612a17565b9050919050565b60006020820190508181036000830152612e5a81612a3a565b9050919050565b60006020820190508181036000830152612e7a81612a5d565b9050919050565b60006020820190508181036000830152612e9a81612a80565b9050919050565b60006020820190508181036000830152612eba81612aa3565b9050919050565b60006020820190508181036000830152612eda81612ac6565b9050919050565b60006020820190508181036000830152612efa81612ae9565b9050919050565b60006020820190508181036000830152612f1a81612b0c565b9050919050565b60006020820190508181036000830152612f3a81612b2f565b9050919050565b60006020820190508181036000830152612f5a81612b52565b9050919050565b60006020820190508181036000830152612f7a81612b75565b9050919050565b60006020820190508181036000830152612f9a81612bbb565b9050919050565b6000602082019050612fb66000830184612bfc565b92915050565b6000604082019050612fd16000830185612bfc565b612fde602083018461289b565b9392505050565b6000612fef613000565b9050612ffb82826132e6565b919050565b6000604051905090565b600067ffffffffffffffff8211156130255761302461347c565b5b602082029050602081019050919050565b600067ffffffffffffffff8211156130515761305061347c565b5b61305a826134c4565b9050602081019050919050565b6000819050919050565b600060039050919050565b600081519050919050565b600081519050919050565b6000602082019050919050565b600081905092915050565b600082825260208201905092915050565b600081905092915050565b600082825260208201905092915050565b600081905092915050565b60006130ed82613232565b91506130f883613232565b9250827fffffffffffffffffffffffffffffffffffffffffffffffffffffffffffffffff0382111561312d5761312c613391565b5b828201905092915050565b600061314382613232565b915061314e83613232565b92508261315e5761315d6133c0565b5b828204905092915050565b600061317482613232565b915061317f83613232565b92508282101561319257613191613391565b5b828203905092915050565b60006131a882613212565b9050919050565b60008115159050919050565b6000819050919050565b60007fffffffff0000000000000000000000000000000000000000000000000000000082169050919050565b60008190506131ff8261386c565b919050565b600061ffff82169050919050565b600073ffffffffffffffffffffffffffffffffffffffff82169050919050565b6000819050919050565b600063ffffffff82169050919050565b600067ffffffffffffffff82169050919050565b600061326b826131f1565b9050919050565b82818337600083830152505050565b60005b8381101561329f578082015181840152602081019050613284565b838111156132ae576000848401525b50505050565b600060028204905060018216806132cc57607f821691505b602082108114156132e0576132df61341e565b5b50919050565b6132ef826134c4565b810181811067ffffffffffffffff8211171561330e5761330d61347c565b5b80604052505050565b600061332282613232565b91507fffffffffffffffffffffffffffffffffffffffffffffffffffffffffffffffff82141561335557613354613391565b5b600182019050919050565b600061336b82613232565b915061337683613232565b925082613386576133856133c0565b5b828206905092915050565b7f4e487b7100000000000000000000000000000000000000000000000000000000600052601160045260246000fd5b7f4e487b7100000000000000000000000000000000000000000000000000000000600052601260045260246000fd5b7f4e487b7100000000000000000000000000000000000000000000000000000000600052602160045260246000fd5b7f4e487b7100000000000000000000000000000000000000000000000000000000600052602260045260246000fd5b7f4e487b7100000000000000000000000000000000000000000000000000000000600052603260045260246000fd5b7f4e487b7100000000000000000000000000000000000000000000000000000000600052604160045260246000fd5b600080fd5b600080fd5b600080fd5b600080fd5b600080fd5b6000601f19601f8301169050919050565b7f4552433732313a207472616e7366657220746f206e6f6e20455243373231526560008201527f63656976657220696d706c656d656e7465720000000000000000000000000000602082015250565b7f4f776e61626c653a206e6577206f776e657220697320746865207a65726f206160008201527f6464726573730000000000000000000000000000000000000000000000000000602082015250565b7f4552433732313a207472616e736665722066726f6d20696e636f72726563742060008201527f6f776e6572000000000000000000000000000000000000000000000000000000602082015250565b7f4552433732313a20746f6b656e20616c7265616479206d696e74656400000000600082015250565b7f4552433732313a207472616e7366657220746f20746865207a65726f2061646460008201527f7265737300000000000000000000000000000000000000000000000000000000602082015250565b7f4552433732313a20617070726f766520746f2063616c6c657200000000000000600082015250565b7f4552433732313a2061646472657373207a65726f206973206e6f74206120766160008201527f6c6964206f776e65720000000000000000000000000000000000000000000000602082015250565b7f45524337323155524953746f726167653a2055524920736574206f66206e6f6e60008201527f6578697374656e7420746f6b656e000000000000000000000000000000000000602082015250565b7f4552433732313a20617070726f76652063616c6c6572206973206e6f7420746f60008201527f6b656e206f776e6572206e6f7220617070726f76656420666f7220616c6c0000602082015250565b7f4552433732313a206d696e7420746f20746865207a65726f2061646472657373600082015250565b7f4f776e61626c653a2063616c6c6572206973206e6f7420746865206f776e6572600082015250565b7f4552433732313a20696e76616c696420746f6b656e2049440000000000000000600082015250565b7f4552433732313a20617070726f76616c20746f2063757272656e74206f776e6560008201527f7200000000000000000000000000000000000000000000000000000000000000602082015250565b50565b7f4552433732313a2063616c6c6572206973206e6f7420746f6b656e206f776e6560008201527f72206e6f7220617070726f766564000000000000000000000000000000000000602082015250565b6003811061387d5761387c6133ef565b5b50565b6138898161319d565b811461389457600080fd5b50565b6138a0816131af565b81146138ab57600080fd5b50565b6138b7816131c5565b81146138c257600080fd5b50565b6138ce81613232565b81146138d957600080fd5b5056fea2646970667358221220ced70736affd877915483eb6cb66de1331a49db8cbc28b5976993b3cff24432264736f6c63430008070033",
  "linkReferences": {},
  "deployedLinkReferences": {}
}